S020000041746D6567613332385F54435F496E7465727275707465722E737265631F
S11300000C9434000C9451000C9451000C94580638
S11300100C9451000C9451000C9451000C94510018
S11300200C9451000C9451000C9451000C949E06B5
S11300300C9451000C9451000C9451000C945100F8
S11300400C9451000C9451000C9451000C945100E8
S11300500C9451000C9451000C9451000C945100D8
S11300600C9451000C94510011241FBECFEFD8E022
S1130070DEBFCDBF11E0A0E0B1E0E4E2F3E102C0F5
S113008005900D92AE3EB107D9F722E0AEEEB1E095
S113009001C01D92A530B207E1F70E94D5050C946A
S11300A090090C940000611102C05A9801C05A9A38
S11300B09BB19F70282F207F922B9BB945E04A95D6
S11300C0F1F700005B9A95E09A95F1F700005B98D0
S11300D040EF4A95F1F72BB1922F9F7040E1849F36
S11300E090011124292B2BB995E09A95F1F7000082
S11300F05B9A45E04A95F1F700005B9890EF9A957A
S1130100F1F7611108C0843030F48FE39FE1019767
S1130110F1F700C0000008955A985B982FEF89EF1B
S113012090E0215080409040E1F700C000008BB186
S11301308F7080638BB925E02A95F1F700005B9AF4
S113014085E08A95F1F700005B9890EF9A95F1F7B6
S11301508FE19EE40197F1F700C0000095E09A95C5
S1130160F1F700005B9A25E02A95F1F700005B980F
S113017080EF8A95F1F78FE193E00197F1F700C0E2
S1130180000095E09A95F1F700005B9A25E02A9526
S1130190F1F700005B9880EF8A95F1F78BB18F70CF
S11301A080628BB995E09A95F1F700005B9A25E09F
S11301B02A95F1F700005B9880EF8A95F1F760E0EB
S11301C088E20E94530060E088E00E94530060E0EF
S11301D081E00E94530060E08CE00E94530060E0E4
S11301E080E80E9453000895CF93DF93EC01888147
S11301F0882339F0219661E00E945300899181118E
S1130200FACFDF91CF910895AC01FB01DB019B0193
S11302102B5F3F4F80E38D93A217B307E1F79A0159
S1130220ADECBCEC0E943909969587959695879517
S1130230969587959C01220F331F880F991F880F6D
S1130240991F880F991F820F931F9A01281B390B3E
S1130250C901805D81939A010E943909AC015695C8
S11302604795569547955695479541155105B9F6C5
S113027008958F929F92AF92BF92EF92FF920F9345
S11302801F93CF93DF937C01CB01BA01480159013D
S1130290E70160969701205E3F4FFE0140E24193E3
S11302A0E217F307E1F720E030E040E851E40E9470
S11302B0AD08A50194010E944E070E94C0071616BE
S11302C017064CF4605F7F4F6E0D7F1D8FEF89938F
S11302D0C617D707E1F7DF91CF911F910F91FF90D8
S11302E0EF90BF90AF909F908F90089560E080E86A
S11302F00E94530086EC91E00E94F40060E080ECE0
S11303000E94530081ED91E00E94F4002FEF85EAF2
S11303109EE0215080409040E1F700C0000060E082
S113032081E00E94530060E080E80E94530082EE66
S113033091E00E94F4002FEF81EE94E02150804080
S11303409040E1F700C0000060E081E00E945300AB
S11303500895CF92DF92EF92FF92CF93DF93EB0158
S11303608130910539F5C090C201D090C301E0906D
S1130370C401F090C5012091BE013091BF014091AC
S1130380C0015091C101C701B6010E9449078823E9
S1130390ACF52DEC3CEC4CEC5DE3C701B6010E94DE
S11303A0DD066093C2017093C3018093C4019093EE
S11303B0C50124C0892B11F5C090C201D090C3019E
S11303C0E090C401F090C5012DEC3CEC4CEC5DE3F5
S11303D0C701B6010E94A808181684F42DEC3CEC61
S11303E04CEC5DE3C701B6010E94DC066093C201D8
S11303F07093C3018093C4019093C501C090BE0162
S1130400D090BF01E090C001F090C101A701960116
S11304106091C2017091C3018091C4019091C501A2
S11304200E94A808882344F0C092C201D092C3015C
S1130430E092C401F092C50120E030E040E251E4D2
S11304406091C2017091C3018091C4019091C50172
S11304500E94AD080E94C007DC01CB019093BD014E
S11304608093BC0160E072E00E940401E0E0F2E0ED
S113047081818D878EE28E8780818F87DF91CF91F6
S1130480FF90EF90DF90CF900895CF93DF93EB012F
S11304908130910589F48091BA019091BB0120913A
S11304A0B8013091B90182179307A4F40A96909386
S11304B0BB018093BA010EC0892B61F48091BA010B
S11304C09091BB01181619062CF40A979093BB015E
S11304D08093BA016CEF71E08091BA019091BB01F5
S11304E00E940401ECEFF1E08281898381818A8397
S11304F080818B83DF91CF910895CF92DF92EF9229
S1130500FF928130910519F5C090BE01D090BF01D2
S1130510E090C001F090C10120E030E040E850E4F8
S1130520C701B6010E9449078823ACF52DEC3CECC9
S11305304CEC5DE3C701B6010E94DD066093BE0189
S11305407093BF018093C0019093C10124C0892B93
S113055011F5C090BE01D090BF01E090C001F090B1
S1130560C10120E030E040E05FE3C701B6010E9432
S1130570A808181684F42DEC3CEC4CEC5DE3C701A0
S1130580B6010E94DC066093BE017093BF018093A4
S1130590C0019093C101C090BE01D090BF01E09012
S11305A0C001F090C101A70196016091C201709150
S11305B0C3018091C4019091C5010E94A8088823B9
S11305C074F0C092C201D092C301E092C401F092CF
S11305D0C5016EE671E082E090E00E94A90120E08E
S11305E030E040E251E46091BE017091BF0180911E
S11305F0C0019091C1010E94AD080E94C007DC01B6
S1130600CB019093BD018093BC0160E072E00E9435
S11306100401E4E0F1E0A0E0B2E011968C911197BE
S113062083878EE284878C918587FF90EF90DF909B
S1130630CF900895EF92FF920F931F93CF93DF9380
S11306407C0160E081E00E94530060E080E80E9449
S113065053008701E701609661E0F80181918F0101
S11306600E9453000C171D07B9F760E080EC0E944C
S113067053008701005E1F4F61E089910E9453007F
S1130680C017D107C9F7DF91CF911F910F91FF9048
S1130690EF900895CF92DF92EF92FF920F931F9302
S11306A02091B4013091B5012130310509F096C093
S11306B01092B5011092B4012091EE013091EF0136
S11306C021303105D9F11CF4232B51F087C022309D
S11306D0310509F452C02430310509F477C07EC0D5
S11306E0E0918E01F0918F01E60FF71F2081FC014C
S11306F0E20FF11D20E2208320918E0130918F01C1
S11307002F5F3F4F2430310529F030938F01209320
S11307108E0104C010928F0110928E0120918E01DF
S113072030918F01FB01E20FF31F2081FC01E20FE6
S1130730F11D2EE320830E941A0350C06EE671E07F
S113074080E090E00E94A9010091BE011091BF01D8
S11307502091C0013091C1014091C2015091C30167
S11307606091C4017091C5018EE691E00E94390147
S11307708EE691E00E941A0331C06AE471E080E0E1
S113078090E00E9445026091B8017091B901072E72
S1130790000C880B990B0E94F8076B017C01609197
S11307A0BA017091BB01072E000C880B990B0E94B3
S11307B0F807AB01BC01970186018AE491E00E942D
S11307C039018AE491E00E941A0308C080E090E0B5
S11307D00E947D0284E091E00E941A038091F0015E
S11307E09091F101019709F0E6C01092F101109285
S11307F0F0018091EE019091EF018130910509F4AF
S11308008AC01CF4892B49F0D6C08230910509F4C2
S1130810A1C0049709F4C7C0CEC080918E01909105
S11308208F01892BF1F481E090E09093EF018093A4
S1130830EE010091BE011091BF012091C0013091E1
S1130840C1014091C2015091C3016091C4017091F2
S1130850C5018EE691E00E9439018EE691E00E9486
S11308601A0380918E0190918F01019771F582E0B6
S113087090E09093EF018093EE016091B801709144
S1130880B901072E000C880B990B0E94F8076B0125
S11308907C016091BA017091BB01072E000C880B9A
S11308A0990B0E94F807AB01BC01970186018AE409
S11308B091E00E9439016AE471E082E090E00E94D4
S11308C0A9018AE491E00E941A0380918E0190911B
S11308D08F01029751F483E090E09093EF018093AD
S11308E0EE0188E291E00E941A0380918E019091BA
S11308F08F01039709F05FC084E090E09093EF01CB
S11309008093EE0182E090E00E947D0284E091E019
S11309100E941A0350C06EE671E081E090E00E94EC
S1130920A9010091BE011091BF012091C001309135
S1130930C1014091C2015091C3016091C401709101
S1130940C5018EE691E00E9439018EE691E00E9495
S11309501A0331C06AE471E081E090E00E9445022C
S11309606091B8017091B901072E000C880B990BA6
S11309700E94F8076B017C016091BA017091BB0180
S1130980072E000C880B990B0E94F807AB01BC01E1
S1130990970186018AE491E00E9439018AE491E09A
S11309A00E941A0308C081E090E00E947D0284E066
S11309B091E00E941A038091F2019091F301019752
S11309C0C1F51092F3011092F2018091EE01909121
S11309D0EF018230910599F01CF4019739F029C098
S11309E083309105A9F00497E1F023C01092EF0140
S11309F01092EE0184E991E00E941A031AC0109249
S1130A00EF011092EE0184E991E00E941A0311C0F3
S1130A101092EF011092EE0184E991E00E941A0312
S1130A2008C01092EF011092EE0184E991E00E9457
S1130A301A031F910F91FF90EF90DF90CF900895CC
S1130A408C3B22E092071CF464E170E002C06AE08F
S1130A5070E0883522E0920714F467E170E0843F87
S1130A6021E0920714F46BE170E0803921E09207F1
S1130A7014F46EE170E08C3221E0920714F463E226
S1130A8070E0883C910514F468E270E084369105C6
S1130A9014F46DE270E0072E000C880B990B0E9491
S1130AA0F8072091C2013091C3014091C4015091D3
S1130AB0C5010E94AD080E94C007CB010895CF93E1
S1130AC0DF930E94D406809304028C3469F40E945C
S1130AD0D406CAEFD1E088830E94D406898380912A
S1130AE00402843419F00AC0843459F70E94D406ED
S1130AF0CAEFD1E088830E94D4068983DF91CF9125
S1130B0008958AEF91E00E946A090895CF93DF93D4
S1130B10209104022C3401F5EC010E9420059093ED
S1130B20B7018093B6019E01DD0F440B550B60E4C1
S1130B3072E48FE090E00E941A09220F331F309371
S1130B408900209388001092850010928400EFE6BB
S1130B50F0E080818260808380910402843429F4EF
S1130B60EFE6F0E080818D7F8083DF91CF9108955F
S1130B70CF93DF9300D000D0CDB7DEB70E948105BC
S1130B80BE016F5F7F4F0E940401EEE6F1E08091A9
S1130B9004028283898183838A8184830F900F90E6
S1130BA00F900F90DF91CF9108958FEF8AB93A9A01
S1130BB0429814B885B981E08093680088E38093F3
S1130BC06B00109280008AE080938100789487E61D
S1130BD090E00E94C7060E948C000E94760160E9A2
S1130BE071E084E991E00E944A036AE471E082E0E2
S1130BF090E00E9445026EE671E082E090E00E947F
S1130C00A9018091EE019091EF018230910531F1BB
S1130C102CF4009749F0019771F034C083309105AA
S1130C2021F1049749F12EC060E971E084E991E073
S1130C300E944A0327C00E945F050E9481050E940A
S1130C4086050E94B8058EE691E00E941A036AE6C2
S1130C5071E08EE691E00E944A0314C068E471E0FA
S1130C608AE491E00E944A030DC064E271E088E2E4
S1130C7091E00E944A0306C060E071E084E091E0E4
S1130C800E944A032FEF89E698E12150804090406A
S1130C90E1F700C000001092F9011092F8011092DF
S1130CA0F7011092F6011092F5011092F401A9CF08
S1130CB01F920F920FB60F9211248F939F931C993A
S1130CC011C08091F6019091F701892B59F481E0CC
S1130CD090E09093B5018093B4019093F7018093D1
S1130CE0F60125C01D9911C08091F4019091F50180
S1130CF0892B59F481E090E09093F1018093F00105
S1130D009093F5018093F40112C01B9910C0809157
S1130D10F8019091F901892B51F481E090E09093CE
S1130D20F3018093F2019093F9018093F8019F916C
S1130D308F910F900FBE0F901F9018951F920F92D6
S1130D400FB60F9211242F933F938F939F93429A40
S1130D508091B6019091B7011816190674F480E0D9
S1130D6090E025E02A95F1F7000001962091B60164
S1130D703091B70182179307A4F342989F918F9102
S1130D803F912F910F900FBE0F901F901895909345
S1130D90C5008093C4001092C00088E18093C10014
S1130DA086E08093C2000895E0ECF0E0808188231F
S1130DB0ECF78091C60008955058BB27AA270E94DB
S1130DC0F4060C946E080E94600838F00E946708CC
S1130DD020F039F49F3F19F426F40C945D080EF4C6
S1130DE0E095E7FB0C945708E92F0E947F0858F31D
S1130DF0BA17620773078407950720F079F4A6F5FC
S1130E000C94A1080EF4E0950B2EBA2FA02D0B0123
S1130E10B90190010C01CA01A0011124FF27591B3B
S1130E2099F0593F50F4503E68F11A16F040A22F41
S1130E30232F342F4427585FF3CF469537952795B2
S1130E40A795F0405395C9F77EF41F16BA0B620BB1
S1130E50730B840BBAF09150A1F0FF0FBB1F661FF8
S1130E60771F881FC2F70EC0BA0F621F731F841F3B
S1130E7048F4879577956795B795F7959E3F08F061
S1130E80B0CF9395880F08F09927EE0F9795879523
S1130E9008950E94330808F481E008950E946207CF
S1130EA00C946E080E94670858F00E94600840F095
S1130EB029F45F3F29F00C94570851110C94A208AF
S1130EC00C945D080E947F0868F39923B1F35523BD
S1130ED091F3951B550BBB27AA2762177307840749
S1130EE038F09F5F5F4F220F331F441FAA1FA9F3DF
S1130EF035D00E2E3AF0E0E832D091505040E695CD
S1130F00001CCAF72BD0FE2F29D0660F771F881F2D
S1130F10BB1F261737074807AB07B0E809F0BB0B20
S1130F20802DBF01FF2793585F4F3AF09E3F510534
S1130F3078F00C9457080C94A2085F3FE4F3983EB1
S1130F40D4F3869577956795B795F7959F5FC9F71D
S1130F50880F911D9695879597F90895E1E0660F9E
S1130F60771F881FBB1F621773078407BA0720F017
S1130F70621B730B840BBA0BEE1F88F7E095089580
S1130F800E94C7076894B1110C94A20808950E94A6
S1130F90870888F09F5798F0B92F9927B751B0F078
S1130FA0E1F0660F771F881F991F1AF0BA95C9F7E9
S1130FB014C0B13091F00E94A108B1E008950C94DE
S1130FC0A108672F782F8827B85F39F0B93FCCF391
S1130FD0869577956795B395D9F73EF49095809566
S1130FE0709561957F4F8F4F9F4F0895E89409C086
S1130FF097FB3EF490958095709561957F4F8F4F48
S11310009F4F9923A9F0F92F96E9BB279395F6955D
S1131010879577956795B795F111F8CFFAF4BB0FDB
S113102011F460FF1BC06F5F7F4F8F4F9F4F16C03F
S1131030882311F096E911C0772321F09EE8872FC9
S1131040762F05C0662371F096E8862F70E060E085
S11310502AF09A95660F771F881FDAF7880F9695FE
S1131060879597F90895990F0008550FAA0BE0E8A2
S1131070FEEF16161706E807F907C0F01216130656
S1131080E407F50798F0621B730B840B950B39F496
S11310900A2661F0232B242B252B21F408950A26FC
S11310A009F4A140A6958FEF811D811D089597F93C
S11310B09F6780E870E060E008959FEF80EC0895FA
S11310C000240A9416161706180609060895002423
S11310D00A9412161306140605060895092E03949D
S11310E0000C11F4882352F0BB0F40F4BF2B11F411
S11310F060FF04C06F5F7F4F8F4F9F4F089557FD70
S11311009058440F551F59F05F3F71F04795880F71
S113111097FB991F61F09F3F79F087950895121608
S113112013061406551FF2CF4695F1DF08C01616B4
S113113017061806991FF1CF869571056105089465
S11311400895E894BB2766277727CB0197F908957C
S11311500E94330808F48FEF08950E94C0080C948D
S11311606E080E94600838F00E94670820F09523FA
S113117011F00C9457080C945D0811240C94A208E7
S11311800E947F0870F3959FC1F3950F50E0551F9F
S1131190629FF001729FBB27F00DB11D639FAA27C8
S11311A0F00DB11DAA1F649F6627B00DA11D661F17
S11311B0829F2227B00DA11D621F739FB00DA11D38
S11311C0621F839FA00D611D221F749F3327A00DF2
S11311D0611D231F849F600D211D822F762F6A2F8E
S11311E011249F5750409AF0F1F088234AF0EE0FF3
S11311F0FF1FBB1F661F771F881F91505040A9F720
S11312009E3F510580F00C9457080C94A2085F3F50
S1131210E4F3983ED4F3869577956795B795F7955B
S1131220E7959F5FC1F7FE2B880F911D96958795D3
S113123097F90895052E97FB1EF400940E94310936
S113124057FD07D00E94480907FC03D04EF40C94C4
S1131250310950954095309521953F4F4F4F5F4F41
S1131260089590958095709561957F4F8F4F9F4F0E
S11312700895A29FB001B39FC001A39F700D811D6B
S11312801124911DB29F700D811D1124911D08958B
S1131290A1E21A2EAA1BBB1BFD010DC0AA1FBB1F76
S11312A0EE1FFF1FA217B307E407F50720F0A21BE8
S11312B0B30BE40BF50B661F771F881F991F1A9455
S11312C069F760957095809590959B01AC01BD017F
S11312D0CF010895FC0188279927E89421912032B1
S11312E0E9F3293010F02E30C8F32B3241F02D32BF
S11312F039F4689404C00E948809820F911D2191D9
S113130020532A30C0F31EF4909581959F4F089581
S11313107AE0979F902D879F802D910D1124089539
S1071320F894FFCF6B
S1131324000710172050575F6C696D69743A2020C8
S1131334202020202056657273696F6E20302E336E
S113134430202020000710172042313A2032303058
S1131354487A403530306D532042323A20313030AF
S1131364487A403530306D53000820343430487A9C
S11313742020202050573A312E32202020202020B3
S113138420202020202020202020000710172020A7
S113139420202020487A202050573A312E3720200C
S11313A42020202020202020202020202020030072
S11313B400071017204D49444920202046697865C8
S11313C46420202020546573742020205365747491
S11313D4696E67730100C800F401DC0001000000B9
S11313E400400000803F50616976612773205443B4
S11313F4003332385020496E7465727275707465A6
S1111404720056657273696F6E20302E3100CF
S9030000FC
