S020000041746D6567613332385F54435F496E7465727275707465722E737265631F
S11300000C9475000C9492000C9492000C941107BB
S11300100C9492000C9492000C9492000C94920014
S11300200C9492000C9492000C9492000C94570738
S11300300C9492000C9492000C9492000C949200F4
S11300400C9492000C9492000C9492000C949200E4
S11300500C9492000C9492000C9492000C949200D4
S11300600C9492000C94920007634236B79BD8A775
S11300701A39685618AEBAAB558C1D3CB7CC5763C9
S1130080BD6DEDFD753EF6177231BF000000803F77
S113009008000000BE922449123EABAAAA2ABECD93
S11300A0CCCC4C3E00000080BEABAAAAAA3E000005
S11300B00000BF000000803F0000000000084178FD
S11300C0D3BB4387D1133D190E3CC3BD4282AD2B34
S11300D03E68EC8276BED98FE1A93E4C80EFFFBE2C
S11300E001C4FF7F3F000000000011241FBECFEFBA
S11300F0D8E0DEBFCDBF11E0A0E0B1E0E4E5F7E178
S113010002C005900D92AE3EB107D9F722E0AEEEE3
S1130110B1E001C01D92A930B207E1F70E94970631
S11301200C94A80B0C940000611102C05A9801C0F1
S11301305A9A9BB19F70282F207F922B9BB945E040
S11301404A95F1F700005B9A95E09A95F1F7000063
S11301505B9840EF4A95F1F72BB1922F9F7040E1E5
S1130160849F90011124292B2BB995E09A95F1F7DE
S113017000005B9A45E04A95F1F700005B9890EF28
S11301809A95F1F7611108C0843030F48FE39FE150
S11301900197F1F700C0000008955A985B982FEF7B
S11301A089EF90E0215080409040E1F700C00000CA
S11301B08BB18F7080638BB925E02A95F1F700002D
S11301C05B9A85E08A95F1F700005B9890EF9A9529
S11301D0F1F78FE19EE40197F1F700C0000095E08C
S11301E09A95F1F700005B9A25E02A95F1F7000053
S11301F05B9880EF8A95F1F78FE193E00197F1F72F
S113020000C0000095E09A95F1F700005B9A25E0A4
S11302102A95F1F700005B9880EF8A95F1F78BB18E
S11302208F7080628BB995E09A95F1F700005B9A24
S113023025E02A95F1F700005B9880EF8A95F1F7A5
S113024060E088E20E94940060E088E00E949400EC
S113025060E081E00E94940060E08CE00E949400E1
S113026060E080E80E9494000895CF93DF93EC014E
S11302708881882339F0219661E00E949400899155
S11302808111FACFDF91CF910895AC01FB01DB011D
S11302909B012B5F3F4F80E38D93A217B307E1F7D8
S11302A09A01ADECBCEC0E94770B969587959695D8
S11302B08795969587959C01220F331F880F991F68
S11302C0880F991F880F991F820F931F9A01281B6B
S11302D0390BC901805D81939A010E94770BAC01AF
S11302E05695479556954795569547954115510509
S11302F0B9F608958F929F92AF92BF92EF92FF92B8
S11303000F931F93CF93DF937C01CB01BA01480174
S11303105901E70160969701205E3F4FFE0140E2DC
S11303204193E217F307E1F720E030E040E851E4BD
S11303300E946609A50194010E9407080E94790899
S1130340161617064CF4605F7F4F6E0D7F1D8FEFFE
S11303508993C617D707E1F7DF91CF911F910F91CA
S1130360FF90EF90BF90AF909F908F90089560E0C2
S113037080E80E94940086EC91E00E94350160E0E0
S113038080EC0E94940081ED91E00E9435012FEFF2
S113039085EA9EE0215080409040E1F700C00000D3
S11303A060E081E00E94940060E080E80E94940094
S11303B082EE91E00E9435012FEF81EE94E021500E
S11303C080409040E1F700C0000060E081E00E94BE
S11303D094000895CF92DF92EF92FF92CF93DF9330
S11303E0EB018130910539F5C090C201D090C30171
S11303F0E090C401F090C5012091BE013091BF018D
S11304004091C0015091C101C701B6010E94020888
S11304108823ACF52DEC3CEC4CEC5DE3C701B60154
S11304200E9496076093C2017093C3018093C40134
S11304309093C50124C0892B11F5C090C201D090BE
S1130440C301E090C401F090C5012DEC3CEC4CECF0
S11304505DE3C701B6010E946109181684F42DEC0E
S11304603CEC4CEC5DE3C701B6010E949507609338
S1130470C2017093C3018093C4019093C501C090DD
S1130480BE01D090BF01E090C001F090C101A7016E
S113049096016091C2017091C3018091C401909151
S11304A0C5010E946109882344F0C092C201D09220
S11304B0C301E092C401F092C50120E030E040E2C3
S11304C051E46091C2017091C3018091C401909183
S11304D0C5010E9466090E947908DC01CB01909352
S11304E0BD018093BC0161E072E00E944501E1E03E
S11304F0F2E081818D878EE28E8780818F87DF9104
S1130500CF91FF90EF90DF90CF900895CF93DF933A
S1130510EB018130910589F48091BA019091BB017E
S11305202091B8013091B90182179307A4F40A9677
S11305309093BB018093BA010EC0892B61F4809122
S1130540BA019091BB01181619062CF40A979093DE
S1130550BB018093BA016DEF71E08091BA01909173
S1130560BB010E944501EDEFF1E082818983818125
S11305708A8380818B83DF91CF910895CF92DF921C
S1130580EF92FF928130910519F5C090BE01D09091
S1130590BF01E090C001F090C10120E030E040E8EC
S11305A050E4C701B6010E9402088823ACF52DEC83
S11305B03CEC4CEC5DE3C701B6010E9496076093E6
S11305C0BE017093BF018093C0019093C10124C008
S11305D0892B11F5C090BE01D090BF01E090C001FD
S11305E0F090C10120E030E040E05FE3C701B601D4
S11305F00E946109181684F42DEC3CEC4CEC5DE38C
S1130600C701B6010E9495076093BE017093BF01B4
S11306108093C0019093C101C090BE01D090BF01EE
S1130620E090C001F090C101A70196016091C20160
S11306307091C3018091C4019091C5010E94610928
S1130640882374F0C092C201D092C301E092C40125
S1130650F092C5016EE671E082E090E00E94EA014A
S113066020E030E040E251E46091BE017091BF01AE
S11306708091C0019091C1010E9466090E9479088D
S1130680DC01CB019093BD018093BC0161E072E079
S11306900E944501E4E0F1E0A1E0B2E011968C9102
S11306A0119783878EE284878C918587FF90EF90E2
S11306B0DF90CF900895EF92FF920F931F93CF9303
S11306C0DF937C0160E081E00E94940060E080E8B8
S11306D00E9494008701E701609661E0F80181912E
S11306E08F010E9494000C171D07B9F760E080EC9D
S11306F00E9494008701005E1F4F61E089910E946F
S11307009400C017D107C9F7DF91CF911F910F91C2
S1130710FF90EF9008958C3B22E092071CF464E173
S113072070E002C06AE070E0883522E0920714F4B9
S113073067E170E0843F21E0920714F46BE170E01C
S1130740803921E0920714F46EE170E08C3221E0EC
S1130750920714F463E270E0883C910514F468E2B3
S113076070E08436910514F46DE270E0072E000CFD
S1130770880B990B0E94B1082091C2013091C301EA
S11307804091C4015091C5010E9466090E947908F4
S1130790CB010895CF93DF930E948D078C3451F4DD
S11307A0CAEFD1E088830E948D0789830E948D0758
S11307B08A830BC0843481F7CAEFD1E088830E9416
S11307C08D0789830E948D078A83DF91CF910895D5
S11307D0EAEFF1E0818190E0C097BC01660F771FDA
S11307E0880F991F880F991F880F991F680F791F09
S11307F08281680F711D69567109072E000C880BE0
S1130800990B0E94B1089B01AC016DE77CE987E874
S11308109FE30E94D30920E030E04CE553E40E94BA
S1130820660920E030E040E05FE30E9496070E9402
S11308307908CB010895CF93DF932091FA012C34EA
S113084001F5EC010E948B039093B7018093B601EC
S11308509E01DD0F440B550B60E472E48FE090E0E1
S11308600E94580B220F331F309389002093880075
S11308701092850010928400EFE6F0E0808182609F
S113088080838091FA01843429F4EFE6F0E08081DA
S11308908D7F8083DF91CF910895CF92DF92EF9285
S11308A0FF920F931F93CF93DF932091B401309164
S11308B0B5012130310509F0B9C01092B50110928B
S11308C0B4012091EE013091EF012230310509F499
S11308D05EC03CF42115310569F021303105C1F1C8
S11308E0A5C02330310509F481C02430310509F451
S11308F095C09CC0E0918E01F0918F01E60FF71F27
S11309002081FC01E20FF11D20E2208320918E0161
S113091030918F012F5F3F4F2430310529F0309300
S11309208F0120938E0104C010928F0110928E01CA
S113093020918E0130918F01FB01E20FF31F208182
S1130940FC01E20FF11D2EE320830E945B036EC0C5
S11309506EE671E080E090E00E94EA010091BE0141
S11309601091BF012091C0013091C1014091C20199
S11309705091C3016091C4017091C5018EE691E06C
S11309800E947A018EE691E00E945B034FC06AE404
S113099071E080E090E00E9486028091BA0190911B
S11309A0BB010E941B046091B8017091B901072E2C
S11309B0000C880B990B0E94B1086B017C016091BB
S11309C0BA017091BB01072E000C880B990B0E9491
S11309D0B108AB01BC01970186018AE491E00E9451
S11309E07A018AE491E00E945B0320C0CAEFD1E05F
S11309F08CE4888384E690E00E941B042FEF89E650
S1130A0098E1215080409040E1F700C0000084E468
S1130A10888384E690E00E941B0408C080E090E094
S1130A200E94BE0284E091E00E945B038091F00189
S1130A309091F101019709F010C11092F101109207
S1130A40F0018091EE019091EF018230910509F45B
S1130A50B5C034F4009761F0019709F490C0FDC06B
S1130A608330910509F4D9C0049709F4EEC0F5C0A8
S1130A7080918E0190918F01892BF1F481E090E0B7
S1130A809093EF018093EE010091BE011091BF019C
S1130A902091C0013091C1014091C2015091C30124
S1130AA06091C4017091C5018EE691E00E947A01C3
S1130AB08EE691E00E945B0380918E0190918F01FC
S1130AC00197B9F582E090E09093EF018093EE01F5
S1130AD06091B8017091B901072E000C880B990B35
S1130AE00E94B1086B017C016091BA017091BB0155
S1130AF0072E000C880B990B0E94B108AB01BC01B6
S1130B00970186018AE491E00E947A016AE471E027
S1130B1082E090E00E94EA018AE491E00E945B0393
S1130B208CE48093FA018091BA019091BB010E94F8
S1130B301B0480918E0190918F01029751F483E000
S1130B4090E09093EF018093EE0188E291E00E949F
S1130B505B0380918E0190918F01039709F07DC012
S1130B6084E090E09093EF018093EE0182E090E0C6
S1130B700E94BE0284E091E00E945B036EC06EE6B8
S1130B8071E081E090E00E94EA010091BE011091C1
S1130B90BF012091C0013091C1014091C201509127
S1130BA0C3016091C4017091C5018EE691E00E9479
S1130BB07A018EE691E00E945B034FC06AE471E023
S1130BC081E090E00E9486028091BA019091BB017D
S1130BD00E941B046091B8017091B901072E000CAA
S1130BE0880B990B0E94B1086B017C016091BA01DA
S1130BF07091BB01072E000C880B990B0E94B10861
S1130C00AB01BC01970186018AE491E00E947A015C
S1130C108AE491E00E945B0320C0CAEFD1E08CE437
S1130C20888388EC90E00E941B042FEF89E698E10A
S1130C30215080409040E1F700C0000084E48883A4
S1130C4088EC90E00E941B0408C081E090E00E94C0
S1130C50BE0284E091E00E945B038091F2019091D6
S1130C60F301019709F041C01092F3011092F201CF
S1130C708091EE019091EF018230910599F01CF47E
S1130C80019739F032C083309105F1F0049729F1CE
S1130C902CC01092EF011092EE0184E991E00E94C1
S1130CA05B0323C01092EF011092EE0184E991E0FE
S1130CB00E945B0384E48093FA018091BA019091CD
S1130CC0BB010E941B0411C01092EF011092EE01AF
S1130CD084E991E00E945B0308C01092EF01109236
S1130CE0EE0184E991E00E945B03DF91CF911F91B3
S1130CF00F91FF90EF90DF90CF9008950E94E8034A
S1130D0065E072E00E944501EEE6F1E0A5E0B2E0A4
S1130D1013968C911397828312968C9112978383E6
S1130D2011968C91119784838C91858308958FEF0C
S1130D308AB93A9A429814B885B981E080936800D8
S1130D4088E380936B00109280008AE08093810096
S1130D50789487E690E00E9480070E94CD000E946C
S1130D60B70160E971E084E991E00E944D046AE40E
S1130D7071E082E090E00E9486026EE671E082E01B
S1130D8090E00E94EA018091EE019091EF0182309F
S1130D90910531F12CF4009749F0019771F034C0BA
S1130DA08330910521F1049749F12EC060E971E087
S1130DB084E991E00E944D0427C00E94CA030E9466
S1130DC0E8030E941B040E947E068EE691E00E94C6
S1130DD05B036AE671E08EE691E00E944D0414C064
S1130DE068E471E08AE491E00E944D040DC064E27D
S1130DF071E088E291E00E944D0406C060E071E079
S1130E0084E091E00E944D041092F9011092F801DF
S1130E101092F7011092F6011092F5011092F4016C
S1130E20B2CF1F920F920FB60F9211248F939F93FC
S1130E301C9911C08091F6019091F701892B59F406
S1130E4081E090E09093B5018093B4019093F70111
S1130E508093F60125C01D9911C08091F4019091F1
S1130E60F501892B59F481E090E09093F10180938E
S1130E70F0019093F5018093F40112C01B9910C006
S1130E808091F8019091F901892B51F481E090E06F
S1130E909093F3018093F2019093F9018093F80108
S1130EA09F918F910F900FBE0F901F9018951F92D6
S1130EB00F920FB60F9211242F933F938F939F930A
S1130EC0429A8091B6019091B7011816190674F4EC
S1130ED080E090E025E02A95F1F70000019620914A
S1130EE0B6013091B70182179307A4F342989F91FA
S1130EF08F913F912F910F900FBE0F901F901895D7
S1130F009093C5008093C4001092C00088E1809340
S1130F10C10086E08093C2000895E0ECF0E0808197
S1130F208823ECF78091C60008955058BB27AA2760
S1130F300E94AD070C9427090E94190938F00E94F9
S1130F40200920F039F49F3F19F426F40C94160973
S1130F500EF4E095E7FB0C941009E92F0E94380980
S1130F6058F3BA17620773078407950720F079F4DA
S1130F70A6F50C945A090EF4E0950B2EBA2FA02D69
S1130F800B01B90190010C01CA01A0011124FF2732
S1130F90591B99F0593F50F4503E68F11A16F0402D
S1130FA0A22F232F342F4427585FF3CF469537952C
S1130FB02795A795F0405395C9F77EF41F16BA0BF1
S1130FC0620B730B840BBAF09150A1F0FF0FBB1F9F
S1130FD0661F771F881FC2F70EC0BA0F621F731FE8
S1130FE0841F48F4879577956795B795F7959E3F45
S1130FF008F0B0CF9395880F08F09927EE0F9795D6
S1131000879508950E94EC0808F481E008950E94F1
S11310101B080C9427090E94200958F00E94190902
S113102040F029F45F3F29F00C94100951110C94FD
S11310305B090C9416090E94380968F39923B1F3EB
S1131040552391F3951B550BBB27AA2762177307EA
S1131050840738F09F5F5F4F220F331F441FAA1F7E
S1131060A9F335D00E2E3AF0E0E832D0915050403A
S1131070E695001CCAF72BD0FE2F29D0660F771FE8
S1131080881FBB1F261737074807AB07B0E809F0CE
S1131090BB0B802DBF01FF2793585F4F3AF09E3F53
S11310A0510578F00C9410090C945B095F3FE4F34C
S11310B0983ED4F3869577956795B795F7959F5F96
S11310C0C9F7880F911D9695879597F90895E1E0E2
S11310D0660F771F881FBB1F621773078407BA0741
S11310E020F0621B730B840BBA0BEE1F88F7E0959C
S11310F008950E9480086894B1110C945B090895C6
S11311000E94400988F09F5798F0B92F9927B7514A
S1131110B0F0E1F0660F771F881F991F1AF0BA9597
S1131120C9F714C0B13091F00E945A09B1E0089592
S11311300C945A09672F782F8827B85F39F0B93F84
S1131140CCF3869577956795B395D9F73EF490954A
S11311508095709561957F4F8F4F9F4F0895E894C8
S113116009C097FB3EF490958095709561957F4FEB
S11311708F4F9F4F9923A9F0F92F96E9BB27939599
S1131180F695879577956795B795F111F8CFFAF4A9
S1131190BB0F11F460FF1BC06F5F7F4F8F4F9F4FDA
S11311A016C0882311F096E911C0772321F09EE838
S11311B0872F762F05C0662371F096E8862F70E09E
S11311C060E02AF09A95660F771F881FDAF7880F78
S11311D09695879597F90895990F0008550FAA0BCE
S11311E0E0E8FEEF16161706E807F907C0F0121636
S11311F01306E407F50798F0621B730B840B950B39
S113120039F40A2661F0232B242B252B21F408958D
S11312100A2609F4A140A6958FEF811D811D08952A
S113122097F99F6780E870E060E008959FEF80EC95
S1131230089500240A941616170618060906089538
S113124000240A9412161306140605060895092E9E
S11312500394000C11F4882352F0BB0F40F4BF2B0D
S113126011F460FF04C06F5F7F4F8F4F9F4F08954D
S113127057FD9058440F551F59F05F3F71F0479543
S1131280880F97FB991F61F09F3F79F08795089528
S1131290121613061406551FF2CF4695F1DF08C047
S11312A0161617061806991FF1CF86957105610564
S11312B008940895E894BB2766277727CB0197F90C
S11312C008950E94EC0808F48FEF08950E947909AC
S11312D00C9427090E94190938F00E94200920F073
S11312E0952311F00C9410090C94160911240C94F4
S11312F05B090E94380970F3959FC1F3950F50E084
S1131300551F629FF001729FBB27F00DB11D639FB3
S1131310AA27F00DB11DAA1F649F6627B00DA11D59
S1131320661F829F2227B00DA11D621F739FB00DFF
S1131330A11D621F839FA00D611D221F749F33276F
S1131340A00D611D231F849F600D211D822F762F08
S11313506A2F11249F5750409AF0F1F088234AF0E5
S1131360EE0FFF1FBB1F661F771F881F9150504051
S1131370A9F79E3F510580F00C9410090C945B0969
S11313805F3FE4F3983ED4F3869577956795B795D8
S1131390F795E7959F5FC1F7FE2B880F911D9695F2
S11313A0879597F90895FA01EE0FFF1F30962105EE
S11313B03105A1F16115710561F48038BFE39B0724
S11313C049F168949038810561F08038BFEF9B073C
S11313D041F099234AF5FF3FE1053105210519F153
S11313E0E8940894E795D901AA2329F4AB2FBE2FDA
S11313F0F85FD0F310C0FF5F70F4A695E0F7F739FB
S113140050F019F0FF3A38F49F779F930DD00F9066
S113141007FC9058089546F00C94160960E070E0BB
S113142080E89FE308954FE79F775F934F933F933F
S11314302F930E94CE0A2F913F914F915F910E946A
S113144066090C942B0A29F416F00C9410090C94D8
S11314505A090C9416090E944009A8F39638A0F77B
S113146007F80F92E8942BE33AEA48EB5FE70E940F
S11314707C090F920F920F924DB75EB70F920E94A4
S1131480160BE8E6F0E00E945D0A4F915F91EF9140
S1131490FF91E595EE1FFF1F49F0FE57E0684427D2
S11314A0EE0F441FFA95E1F74195550B0E94900AFF
S11314B00F9007FE0C94840A0895DF93CF931F9333
S11314C00F93FF92EF92DF927B018C01689406C028
S11314D0DA2EEF010E947909FE01E894A591259185
S11314E0359145915591A6F3EF010E94AD07FE0198
S11314F09701A801DA9469F7DF90EF90FF900F91BC
S11315001F91CF91DF9108959B01AC0160E070E0E1
S113151080E89FE30C9407080C9410090C944A0B80
S11315200E944009D8F39923C9F3940F511DA3F3E2
S11315309150504094F059F0882332F0660F771F91
S1131540881F91505040C1F79E3F51052CF7880FDA
S1131550911D9695879597F908955F3FACF0983E55
S11315609CF0BB27869577956795B79508F4B1608D
S11315709395C1F7BB0F58F711F460FFE8CF6F5F85
S11315807F4F8F4F9F4FE3CF0C945B0916F00C9461
S11315904A0B0C94160968940C9410090E94400993
S11315A0A8F39923C1F3AEF3DF93CF931F930F9363
S11315B0FF92C92FDD2788232AF02197660F771F12
S11315C0881FDAF720E030E040E85FEB9FE38839DA
S11315D020F0803E38F021968F770E949607E0E94C
S11315E0F0E004C00E949607EDEBF0E00E945D0A73
S11315F08B01BE01EC01FB2E6F5771097595771FA6
S1131600880B990B0E94B10828E132E741E35FE3BC
S11316100E947909AF2D9801AE01FF900F911F919F
S1131620CF91DF910E94AD070C942709FA01DC01E8
S1131630AA0FBB1F9B01AC01BF5728F422273327F5
S11316404427507820C0B75190F4AB2F002446951E
S113165037952795011CA395D2F3002071F0220F32
S1131660331F441FB395DAF30ED00C949507613001
S11316707105A0E88A07B94630F49B01AC016627DE
S1131680772788279078309621F02083318342830E
S1131690538308959F3F31F0915020F487957795B7
S11316A06795B795880F911D9695879597F9089535
S11316B0052E97FB1EF400940E946F0B57FD07D074
S11316C00E94860B07FC03D04EF40C946F0B5095CC
S11316D04095309521953F4F4F4F5F4F089590951A
S11316E08095709561957F4F8F4F9F4F0895A29F6E
S11316F0B001B39FC001A39F700D811D1124911DE2
S1131700B29F700D811D1124911D0895A1E21A2E1E
S1131710AA1BBB1BFD010DC0AA1FBB1FEE1FFF1F91
S1131720A217B307E407F50720F0A21BB30BE40BE1
S1131730F50B661F771F881F991F1A9469F7609528
S11317407095809590959B01AC01BD01CF010895E2
S1071750F894FFCF37
S1131754000710172050575F6C696D69743A202094
S1131764202020202056657273696F6E20302E3538
S113177430202020000710172042313A2031303025
S1131784487A403530306D532042323A203230307A
S1131794487A403530306D53000820343430487A68
S11317A42020202050573A312E322020202020207F
S11317B42020202020202020202000071017202073
S11317C420202020487A202050573A312E372020D8
S11317D4202020202020202020202020202003003E
S11317E400071017204D4944492020204669786594
S11317F4642020202054657374202020536574745D
S1131804696E67730100C800F401DC000100000084
S113181400400000803F506169766127732054437F
S1131824003332385020496E746572727570746571
S1111834720056657273696F6E20302E31009B
S9030000FC
