S020000041746D6567613332385F54435F496E7465727275707465722E737265631F
S11300000C9475000C9492000C9492000C9480074C
S11300100C9492000C9492000C9492000C94920014
S11300200C9492000C9492000C9492000C94C607C9
S11300300C9492000C9492000C9492000C949200F4
S11300400C9492000C9492000C943B070C94920034
S11300500C9492000C9492000C9492000C949200D4
S11300600C9492000C94920007634236B79BD8A775
S11300701A39685618AEBAAB558C1D3CB7CC5763C9
S1130080BD6DEDFD753EF6177231BF000000803F77
S113009008000000BE922449123EABAAAA2ABECD93
S11300A0CCCC4C3E00000080BEABAAAAAA3E000005
S11300B00000BF000000803F0000000000084178FD
S11300C0D3BB4387D1133D190E3CC3BD4282AD2B34
S11300D03E68EC8276BED98FE1A93E4C80EFFFBE2C
S11300E001C4FF7F3F000000000011241FBECFEFBA
S11300F0D8E0DEBFCDBF11E0A0E0B1E0E2E3F8E17B
S113010002C005900D92AE3EB107D9F722E0AEEEE3
S1130110B1E001C01D92AB30B207E1F70E9498062E
S11301200C94170C0C940000611102C05A9801C081
S11301305A9A9BB19F70282F207F922B9BB945E040
S11301404A95F1F700005B9A95E09A95F1F7000063
S11301505B9840EF4A95F1F72BB1922F9F7040E1E5
S1130160849F90011124292B2BB995E09A95F1F7DE
S113017000005B9A45E04A95F1F700005B9890EF28
S11301809A95F1F7611108C0843030F48FE39FE150
S11301900197F1F700C0000008955A985B982FEF7B
S11301A089EF90E0215080409040E1F700C00000CA
S11301B08BB18F7080638BB925E02A95F1F700002D
S11301C05B9A85E08A95F1F700005B9890EF9A9529
S11301D0F1F78FE19EE40197F1F700C0000095E08C
S11301E09A95F1F700005B9A25E02A95F1F7000053
S11301F05B9880EF8A95F1F78FE193E00197F1F72F
S113020000C0000095E09A95F1F700005B9A25E0A4
S11302102A95F1F700005B9880EF8A95F1F78BB18E
S11302208F7080628BB995E09A95F1F700005B9A24
S113023025E02A95F1F700005B9880EF8A95F1F7A5
S113024060E088E20E94940060E088E00E949400EC
S113025060E081E00E94940060E08CE00E949400E1
S113026060E080E80E9494000895CF93DF93EC014E
S11302708881882339F0219661E00E949400899155
S11302808111FACFDF91CF910895AC01FB01DB011D
S11302909B012B5F3F4F80E38D93A217B307E1F7D8
S11302A09A01ADECBCEC0E94E60B96958795969569
S11302B08795969587959C01220F331F880F991F68
S11302C0880F991F880F991F820F931F9A01281B6B
S11302D0390BC901805D81939A010E94E60BAC0140
S11302E05695479556954795569547954115510509
S11302F0B9F6089560E080E80E94940086EC91E0ED
S11303000E94350160E080EC0E94940081ED91E050
S11303100E9435012FEF85EA9EE0215080409040F5
S1130320E1F700C0000060E081E00E94940060E01A
S113033080E80E94940082EE91E00E9435012FEF44
S113034081EE94E0215080409040E1F700C000002D
S113035060E081E00E9494000895EF92FF920F9371
S11303601F93CF93DF937C0160E081E00E949400AF
S113037060E080E80E9494008701E701609661E0F4
S1130380F80181918F010E9494000C171D07B9F7A1
S113039060E080EC0E9494008701005E1F4F61E0E2
S11303A089910E949400C017D107C9F7DF91CF91BA
S11303B01F910F91FF90EF900895CF92DF92EF92EB
S11303C0FF92CF93DF93EB018130910539F5C09013
S11303D0C201D090C301E090C401F090C501209106
S11303E0BE013091BF014091C0015091C101C701CC
S11303F0B6010E9471088823ACF52DEC3CEC4CEC62
S11304005DE3C701B6010E9405086093C2017093C1
S1130410C3018093C4019093C50124C0892B11F5B5
S1130420C090C201D090C301E090C401F090C50116
S11304302DEC3CEC4CEC5DE3C701B6010E94D00905
S1130440181684F42DEC3CEC4CEC5DE3C701B601CA
S11304500E9404086093C2017093C3018093C40195
S11304609093C501C090BE01D090BF01E090C0013F
S1130470F090C101A70196016091C2017091C3017E
S11304808091C4019091C5010E94D009882344F051
S1130490C092C201D092C301E092C401F092C5019E
S11304A020E030E040E251E46091C2017091C30168
S11304B08091C4019091C5010E94D5090E94E80869
S11304C0DC01CB019093BD018093BC0163E072E039
S11304D00E944501E3E0F2E081818D878EE28E8700
S11304E080818F87DF91CF91FF90EF90DF90CF9045
S11304F00895CF93DF93EB018130910589F48091C6
S1130500BA019091BB012091B8013091B9018217D1
S11305109307A4F40A969093BB018093BA010EC08A
S1130520892B61F48091BA019091BB0183339105C9
S11305302CF00A979093BB018093BA016FEF71E09E
S11305408091BA019091BB010E944501EFEFF1E067
S11305508281898381818A8380818B83DF91CF919A
S11305600895CF92DF92EF92FF928130910519F5B1
S1130570C090BE01D090BF01E090C001F090C101D5
S113058020E030E040E850E4C701B6010E94710861
S11305908823ACF52DEC3CEC4CEC5DE3C701B601D3
S11305A00E9405086093BE017093BF018093C0014F
S11305B09093C10124C0892B11F5C090BE01D09045
S11305C0BF01E090C001F090C10120E030E040E0C4
S11305D05FE3C701B6010E94D009181684F42DEC1C
S11305E03CEC4CEC5DE3C701B6010E940408609347
S11305F0BE017093BF018093C0019093C101C0906C
S1130600BE01D090BF01E090C001F090C101A701EC
S113061096016091C2017091C3018091C4019091CF
S1130620C5010E94D009882374F0C092C201D092FF
S1130630C301E092C401F092C5016EE671E082E06C
S113064090E00E94DD0120E030E040E251E460915E
S1130650BE017091BF018091C0019091C1010E94BF
S1130660D5090E94E808DC01CB019093BD01809379
S1130670BC0163E072E00E944501E4E0F1E0A3E024
S1130680B2E011968C91119783878EE284878C91C6
S11306908587FF90EF90DF90CF9008958C3B22E008
S11306A092071CF464E170E002C06AE070E08835EF
S11306B022E0920714F467E170E0843F21E092079E
S11306C014F46BE170E0803921E0920714F46EE1D8
S11306D070E08C3221E0920714F463E270E0883C0D
S11306E0910514F468E270E08436910514F46DE227
S11306F070E0072E000C880B990B0E9420092091B2
S1130700C2013091C3014091C4015091C5010E94BE
S1130710D5090E94E808CB0108958F929F92AF9269
S1130720BF92EF92FF920F931F93CF93DF937C01BD
S1130730CB01BA0148015901E70160969701205E97
S11307403F4FFE0140E24193E217F307E1F720E057
S113075030E040E851E40E94D509A50194010E94CB
S113076076080E94E808161617064CF4605F7F4F5F
S11307706E0D7F1D8FEF8993C617D707E1F7DF91C1
S1130780CF911F910F91FF90EF90BF90AF909F90EA
S11307908F900895ECEFF1E0818190E0C097BC0167
S11307A0660F771F880F991F880F991F880F991F4D
S11307B0680F791F8281680F711D69567109072EB0
S11307C0000C880B990B0E9420099B01AC016DE77A
S11307D07CE987E89FE30E94420A20E030E04CE590
S11307E053E40E94D50920E030E040E05FE30E943A
S11307F005080E94E808CB010895CF93DF93209168
S1130800FC012C3401F5EC010E944E039093B701D6
S11308108093B6019E01DD0F440B550B60E472E436
S11308208FE090E00E94C70B220F331F30938900A2
S1130830209388001092850010928400EFE6F0E087
S11308408081826080838091FC01843429F4EFE606
S1130850F0E080818D7F8083DF91CF910895CF92E6
S1130860DF92EF92FF920F931F93CF93DF93209128
S1130870B4013091B5012130310509F0C7C010929F
S1130880B5011092B4012091EE013091EF012230B4
S1130890310509F45EC03CF42115310569F02130BD
S11308A03105C1F1B3C02330310509F481C02430CE
S11308B0310509F4A3C0AAC0E0918E01F0918F0123
S11308C0E60FF71F2081FC01E20FF11D20E22083D7
S11308D020918E0130918F012F5F3F4F24303105DD
S11308E029F030938F0120938E0104C010928F0160
S11308F010928E0120918E0130918F01FB01E20F45
S1130900F31F2081FC01E20FF11D2EE320830E94DE
S1130910AD017CC06EE671E080E090E00E94DD01F4
S11309200091BE011091BF012091C0013091C1011D
S11309304091C2015091C3016091C4017091C501FD
S11309408EE691E00E948D038EE691E00E94AD0157
S11309505DC06AE471E080E090E00E9479028091D9
S1130960BA019091BB010E94FD036091B80170919E
S1130970B901072E000C880B990B0E9420096B010A
S11309807C016091BA017091BB01072E000C880BA9
S1130990990B0E942009AB01BC01970186018AE4EE
S11309A091E00E948D038AE491E00E94AD012EC083
S11309B0C8E2D1E08EE38883CE010E94AD010CEF42
S11309C011E08CE4F801808384E690E00E94FD034A
S11309D0FFEF29E688E1F15020408040E1F700C0B4
S11309E0000084E4F801808384E690E00E94FD0323
S11309F080E28883CE010E94AD0108C080E090E0CF
S1130A000E94B10284E091E00E94AD018091F00166
S1130A109091F101019709F01EC11092F101109219
S1130A20F0018091EE019091EF018230910509F47B
S1130A30B5C034F4009761F0019709F490C00BC17C
S1130A408330910509F4D9C0049709F4FCC003C1AB
S1130A5080918E0190918F01892BF1F481E090E0D7
S1130A609093EF018093EE010091BE011091BF01BC
S1130A702091C0013091C1014091C2015091C30144
S1130A806091C4017091C5018EE691E00E948D03CE
S1130A908EE691E00E94AD0180918E0190918F01CC
S1130AA00197B9F582E090E09093EF018093EE0115
S1130AB06091B8017091B901072E000C880B990B55
S1130AC00E9420096B017C016091BA017091BB0105
S1130AD0072E000C880B990B0E942009AB01BC0166
S1130AE0970186018AE491E00E948D036AE471E033
S1130AF082E090E00E94DD018AE491E00E94AD0171
S1130B008CE48093FC018091BA019091BB010E9416
S1130B10FD0380918E0190918F01029751F483E03F
S1130B2090E09093EF018093EE0188E291E00E94BF
S1130B30AD0180918E0190918F01039709F08BC0D4
S1130B4084E090E09093EF018093EE0182E090E0E6
S1130B500E94B10284E091E00E94AD017CC06EE687
S1130B6071E081E090E00E94DD010091BE011091EE
S1130B70BF012091C0013091C1014091C201509147
S1130B80C3016091C4017091C5018EE691E00E9499
S1130B908D038EE691E00E94AD015DC06AE471E0D0
S1130BA081E090E00E9479028091BA019091BB01AA
S1130BB00E94FD036091B8017091B901072E000CE9
S1130BC0880B990B0E9420096B017C016091BA018A
S1130BD07091BB01072E000C880B990B0E94200911
S1130BE0AB01BC01970186018AE491E00E948D0368
S1130BF08AE491E00E94AD012EC0C8E2D1E08EE308
S1130C00888BCE010E94AD010CEF11E08CE4F80159
S1130C10808388EC90E00E94FD03FFEF29E688E1E1
S1130C20F15020408040E1F700C0000084E4F80166
S1130C30808388EC90E00E94FD0380E2888BCE01E3
S1130C400E94AD0108C081E090E00E94B10284E0FE
S1130C5091E00E94AD018091F2019091F30101971E
S1130C6009F048C01092F3011092F2018091EE0154
S1130C709091EF0182309105D1F01CF4019739F085
S1130C8039C08330910529F1049761F133C0109282
S1130C90EF011092EE0184E991E00E94AD0184E439
S1130CA08093FC0180E090E00E94FD0323C0109239
S1130CB0EF011092EE0184E991E00E94AD0184E419
S1130CC08093FC018091BA019091BB010E94FD03C5
S1130CD011C01092EF011092EE0184E991E00E949C
S1130CE0AD0108C01092EF011092EE0184E991E089
S1130CF00E94AD01DF91CF911F910F91FF90EF9072
S1130D00DF90CF9008950E94CA0367E072E00E94CA
S1130D104501EEE6F1E0A7E0B2E012968C9112975D
S1130D20828311968C91119783838C918483089587
S1130D308FEF8AB93A9A429814B885B981E08093C2
S1130D40680088E380936B00109280008AE08093AF
S1130D50810087E690E00E94EF07E1ECF0E08081FB
S1130D60806880830E94CD000E947A0160E971E06E
S1130D7084E991E00E942F046AE471E082E090E04B
S1130D800E9479026EE671E082E090E00E94DD014B
S1130D9078948091EE019091EF018230910571F188
S1130DA02CF4009749F0019771F03CC08330910511
S1130DB061F1049789F136C060E971E084E991E05A
S1130DC00E942F042FC08091FA019091FB0101979A
S1130DD071F41092FB011092FA010E94CA030E945E
S1130DE0FD030E9483068EE691E00E94AD016AE64F
S1130DF071E08EE691E00E942F0414C068E471E073
S1130E008AE491E00E942F040DC064E271E088E25C
S1130E1091E00E942F0406C060E071E084E091E05C
S1130E200E942F048091EE019091EF010197B1F09F
S1130E302FEF89E698E1215080409040E1F700C00F
S1130E4000001092F9011092F8011092F70110922B
S1130E50F6011092F5011092F4019BCF1092F90162
S1130E601092F8011092F7011092F6011092F50118
S1130E701092F4018ECF1F920F920FB60F9211248D
S1130E802F933F934F935F936F937F938F939F938E
S1130E90AF93BF93CF93DF93EF93FF930E94FC072D
S1130EA08C3451F4CCEFD1E088830E94FC07898311
S1130EB00E94FC078A830BC0843481F7CCEFD1E015
S1130EC088830E94FC0789830E94FC078A8381E04F
S1130ED090E09093FB018093FA01FF91EF91DF91F1
S1130EE0CF91BF91AF919F918F917F916F915F91BE
S1130EF04F913F912F910F900FBE0F901F90189517
S1130F001F920F920FB60F9211248F939F931C99E7
S1130F1011C08091F6019091F701892B59F481E079
S1130F2090E09093B5018093B4019093F70180937E
S1130F30F60125C01D9911C08091F4019091F5012D
S1130F40892B59F481E090E09093F1018093F001B2
S1130F509093F5018093F40112C01B9910C0809105
S1130F60F8019091F901892B51F481E090E090937C
S1130F70F3018093F2019093F9018093F8019F911A
S1130F808F910F900FBE0F901F9018951F920F9284
S1130F900FB60F9211242F933F938F939F93429AEE
S1130FA08091B6019091B7011816190674F480E087
S1130FB090E025E02A95F1F7000001962091B60112
S1130FC03091B70182179307A4F342989F918F91B0
S1130FD03F912F910F900FBE0F901F9018959093F3
S1130FE0C5008093C4001092C00088E18093C100C2
S1130FF086E08093C2000895E0ECF0E080818823CD
S1131000ECF78091C60008955058BB27AA270E9488
S11310101C080C9496090E94880938F00E948F09D4
S113102020F039F49F3F19F426F40C9485090EF44A
S1131030E095E7FB0C947F09E92F0E94A70958F378
S1131040BA17620773078407950720F079F4A6F5A9
S11310500C94C9090EF4E0950B2EBA2FA02D0B01A8
S1131060B90190010C01CA01A0011124FF27591BE9
S113107099F0593F50F4503E68F11A16F040A22FEF
S1131080232F342F4427585FF3CF46953795279560
S1131090A795F0405395C9F77EF41F16BA0B620B5F
S11310A0730B840BBAF09150A1F0FF0FBB1F661FA6
S11310B0771F881FC2F70EC0BA0F621F731F841FE9
S11310C048F4879577956795B795F7959E3F08F00F
S11310D0B0CF9395880F08F09927EE0F97958795D1
S11310E008950E945B0908F481E008950E948A082B
S11310F00C9496090E948F0958F00E94880940F0C8
S113110029F45F3F29F00C947F0951110C94CA090A
S11311100C9485090E94A70968F39923B1F3552318
S113112091F3951B550BBB27AA27621773078407F6
S113113038F09F5F5F4F220F331F441FAA1FA9F38C
S113114035D00E2E3AF0E0E832D091505040E6957A
S1131150001CCAF72BD0FE2F29D0660F771F881FDB
S1131160BB1F261737074807AB07B0E809F0BB0BCE
S1131170802DBF01FF2793585F4F3AF09E3F5105E2
S113118078F00C947F090C94CA095F3FE4F3983E0D
S1131190D4F3869577956795B795F7959F5FC9F7CB
S11311A0880F911D9695879597F90895E1E0660F4C
S11311B0771F881FBB1F621773078407BA0720F0C5
S11311C0621B730B840BBA0BEE1F88F7E09508952E
S11311D00E94EF086894B1110C94CA0908950E9402
S11311E0AF0988F09F5798F0B92F9927B751B0F0FD
S11311F0E1F0660F771F881F991F1AF0BA95C9F797
S113120014C0B13091F00E94C909B1E008950C9462
S1131210C909672F782F8827B85F39F0B93FCCF315
S1131220869577956795B395D9F73EF49095809513
S1131230709561957F4F8F4F9F4F0895E89409C033
S113124097FB3EF490958095709561957F4F8F4FF5
S11312509F4F9923A9F0F92F96E9BB279395F6950B
S1131260879577956795B795F111F8CFFAF4BB0F89
S113127011F460FF1BC06F5F7F4F8F4F9F4F16C0ED
S1131280882311F096E911C0772321F09EE8872F77
S1131290762F05C0662371F096E8862F70E060E033
S11312A02AF09A95660F771F881FDAF7880F9695AC
S11312B0879597F90895990F0008550FAA0BE0E850
S11312C0FEEF16161706E807F907C0F01216130604
S11312D0E407F50798F0621B730B840B950B39F444
S11312E00A2661F0232B242B252B21F408950A26AA
S11312F009F4A140A6958FEF811D811D089597F9EA
S11313009F6780E870E060E008959FEF80EC0895A7
S113131000240A94161617061806090608950024D0
S11313200A9412161306140605060895092E03944A
S1131330000C11F4882352F0BB0F40F4BF2B11F4BE
S113134060FF04C06F5F7F4F8F4F9F4F089557FD1D
S11313509058440F551F59F05F3F71F04795880F1F
S113136097FB991F61F09F3F79F0879508951216B6
S113137013061406551FF2CF4695F1DF08C0161662
S113138017061806991FF1CF869571056105089413
S11313900895E894BB2766277727CB0197F908952A
S11313A00E945B0908F48FEF08950E94E8090C94E9
S11313B096090E94880938F00E948F0920F095232D
S11313C011F00C947F090C94850911240C94CA091A
S11313D00E94A70970F3959FC1F3950F50E0551F24
S11313E0629FF001729FBB27F00DB11D639FAA2776
S11313F0F00DB11DAA1F649F6627B00DA11D661FC5
S1131400829F2227B00DA11D621F739FB00DA11DE5
S1131410621F839FA00D611D221F749F3327A00D9F
S1131420611D231F849F600D211D822F762F6A2F3B
S113143011249F5750409AF0F1F088234AF0EE0FA0
S1131440FF1FBB1F661F771F881F91505040A9F7CD
S11314509E3F510580F00C947F090C94CA095F3FAC
S1131460E4F3983ED4F3869577956795B795F79509
S1131470E7959F5FC1F7FE2B880F911D9695879581
S113148097F90895FA01EE0FFF1F309621053105F3
S1131490A1F16115710561F48038BFE39B0749F13F
S11314A068949038810561F08038BFEF9B0741F064
S11314B099234AF5FF3FE1053105210519F1E89427
S11314C00894E795D901AA2329F4AB2FBE2FF85F1E
S11314D0D0F310C0FF5F70F4A695E0F7F73950F031
S11314E019F0FF3A38F49F779F930DD00F9007FCC3
S11314F09058089546F00C94850960E070E080E807
S11315009FE308954FE79F775F934F933F932F9304
S11315100E943D0B2F913F914F915F910E94D509FD
S11315200C949A0A29F416F00C947F090C94C909B6
S11315300C9485090E94AF09A8F39638A0F707F820
S11315400F92E8942BE33AEA48EB5FE70E94EB0939
S11315500F920F920F924DB75EB70F920E94850BB8
S1131560E8E6F0E00E94CC0A4F915F91EF91FF9181
S1131570E595EE1FFF1F49F0FE57E0684427EE0F84
S1131580441FFA95E1F74195550B0E94FF0A0F900D
S113159007FE0C94F30A0895DF93CF931F930F93E0
S11315A0FF92EF92DF927B018C01689406C0DA2EE1
S11315B0EF010E94E809FE01E894A5912591359177
S11315C045915591A6F3EF010E941C08FE01970175
S11315D0A801DA9469F7DF90EF90FF900F911F91C3
S11315E0CF91DF9108959B01AC0160E070E080E849
S11315F09FE30C9476080C947F090C94B90B0E9419
S1131600AF09D8F39923C9F3940F511DA3F3915053
S1131610504094F059F0882332F0660F771F881FEA
S113162091505040C1F79E3F51052CF7880F911DF2
S11316309695879597F908955F3FACF0983E9CF096
S1131640BB27869577956795B79508F4B160939510
S1131650C1F7BB0F58F711F460FFE8CF6F5F7F4FFE
S11316608F4F9F4FE3CF0C94CA0916F00C94B90B1B
S11316700C94850968940C947F090E94AF09A8F31F
S11316809923C1F3AEF3DF93CF931F930F93FF928C
S1131690C92FDD2788232AF02197660F771F881F1B
S11316A0DAF720E030E040E85FEB9FE3883920F090
S11316B0803E38F021968F770E940508E0E9F0E03B
S11316C004C00E940508EDEBF0E00E94CC0A8B01F7
S11316D0BE01EC01FB2E6F5771097595771F880BBE
S11316E0990B0E94200928E132E741E35FE30E945D
S11316F0E809AF2D9801AE01FF900F911F91CF9192
S1131700DF910E941C080C949609FA01DC01AA0FCF
S1131710BB1F9B01AC01BF5728F422273327442762
S1131720507820C0B75190F4AB2F002446953795DC
S11317302795011CA395D2F3002071F0220F331FCB
S1131740441FB395DAF30ED00C940408613071058C
S1131750A0E88A07B94630F49B01AC0166277727D5
S113176088279078309621F02083318342835383F5
S113177008959F3F31F0915020F4879577956795B0
S1131780B795880F911D9695879597F90895052E1D
S113179097FB1EF400940E94DE0B57FD07D00E94B5
S11317A0F50B07FC03D04EF40C94DE0B50954095DA
S11317B0309521953F4F4F4F5F4F089590958095F9
S11317C0709561957F4F8F4F9F4F0895A29FB001F1
S11317D0B39FC001A39F700D811D1124911DB29F61
S11317E0700D811D1124911D0895A1E21A2EAA1BCA
S11317F0BB1BFD010DC0AA1FBB1FEE1FFF1FA217BD
S1131800B307E407F50720F0A21BB30BE40BF50BB9
S1131810661F771F881F991F1A9469F76095709542
S1131820809590959B01AC01BD01CF010895F8947A
S1051830FFCFE4
S1131832000710172050575F6C696D69743A2020B5
S1131842202020202056657273696F6E20302E3955
S113185230202020000710172042313A2031303046
S1131862487A403530306D532042323A203230309B
S1131872487A403530306D53000820343430487A89
S11318822020202050573A312E32202020202020A0
S11318922020202020202020202000071017202094
S11318A2202020487A20202050573A312E372020F9
S11318B2202020202020202020202020202003005F
S11318C200071017204D49444920202046697865B5
S11318D2642020202054657374202020536574747E
S11318E2696E67730100C800F401DC0001000000A6
S11318F200400000803F50616976612773205443A1
S1131902003332385020496E746572727570746592
S1111912720056657273696F6E20302E3100BC
S9030000FC
