S020000041746D6567613332385F54435F496E7465727275707465722E737265631F
S11300000C9434000C9451000C9451000C94950100
S11300100C9451000C9451000C9451000C94510018
S11300200C9451000C9451000C9451000C94510008
S11300300C9451000C9451000C9451000C945100F8
S11300400C9451000C9451000C9451000C945100E8
S11300500C9451000C9451000C9451000C945100D8
S11300600C9451000C94510011241FBECFEFD8E022
S1130070DEBFCDBF11E0A0E0B1E0EAEDF3E002C0E5
S113008005900D92A035B107D9F721E0A0E5B1E0C4
S113009001C01D92A635B207E1F70E94C8010C9475
S11300A0EB010C940000611102C05A9801C05A9AE5
S11300B09BB19F70282F207F922B9BB945E04A95D6
S11300C0F1F700005B9A95E09A95F1F700005B98D0
S11300D040EF4A95F1F72BB1922F9F7040E1849F36
S11300E090011124292B2BB995E09A95F1F7000082
S11300F05B9A45E04A95F1F700005B9890EF9A957A
S1130100F1F7611108C0843030F48FE39FE1019767
S1130110F1F700C0000008955A985B982FEF89EF1B
S113012090E0215080409040E1F700C000008BB186
S11301308F7080638BB925E02A95F1F700005B9AF4
S113014085E08A95F1F700005B9890EF9A95F1F7B6
S11301508FE19EE40197F1F700C0000095E09A95C5
S1130160F1F700005B9A25E02A95F1F700005B980F
S113017080EF8A95F1F78FE193E00197F1F700C0E2
S1130180000095E09A95F1F700005B9A25E02A9526
S1130190F1F700005B9880EF8A95F1F78BB18F70CF
S11301A080628BB995E09A95F1F700005B9A25E09F
S11301B02A95F1F700005B9880EF8A95F1F760E0EB
S11301C088E20E94530060E088E00E94530060E0EF
S11301D081E00E94530060E08CE00E94530060E0E4
S11301E080E80E9453000895CF93DF93EC01888147
S11301F0882339F0219661E00E945300899181118E
S1130200FACFDF91CF9108950F931F93CF93DF938C
S113021060E081E00E94530060E080E80E945300A7
S113022006E011E0C6E1D1E061E0F80181918F01BF
S11302300E9453000C171D07B9F760E080EC0E9480
S1130240530006E211E061E089910E945300C01757
S1130250D107C9F7DF91CF911F910F91089560E005
S113026080E80E94530088E291E00E94F40060E07C
S113027080EC0E94530083E391E00E94F4002FEF8E
S11302808BE792E9215080409040E1F700C00000E4
S113029060E081E00E94530060E080E80E94530027
S11302A084E491E00E94F4002FEF83ED90E3215069
S11302B080409040E1F700C0000060E081E00E94CF
S11302C0530008958091260190912701019761F5CB
S11302D08091000190910101FC01EE5FFE4FE081ED
S11302E0F0E0EA5FFE4F20E220830196843091051E
S11302F029F0909301018093000104C01092010140
S113030010920001E0910001F0910101EE5FFE4FB7
S1130310E081F0E0EA5FFE4F8EE3808310922701D4
S1130320109226010E94040108951F920F920FB6A5
S11303300F9211248F939F931C9911C080915401A3
S113034090915501892B59F481E090E09093270115
S113035080932601909355018093540112C01D99F6
S113036010C08091520190915301892B51F481E086
S113037090E09093510180935001909353018093A6
S113038052019F918F910F900FBE0F901F9018955F
S11303908FEF8AB914B885B981E08093680080E34F
S11303A080936B0078940E948C000E942F010E941D
S11303B062010E9404010E9462012FEF89E698E124
S11303C0215080409040E1F700C000001092550198
S10D03D010925401F0CFF894FFCF0F
S11303DAFFFF00071017204D494449202020466991
S11303EA786564202020204E6F6E65202020736576
S11303FA7474696E677301005061697661277320AA
S113040A5443003332385020496E746572727570E1
S113041A7465720056657273696F6E20302E3100EE
S9030000FC
