:100000000C9475000C9492000C9492000C940609C8
:100010000C9492000C9492000C9492000C94920018
:100020000C9492000C9492000C9492000C94680929
:100030000C9492000C9492000C9492000C949200F8
:100040000C9495090C9492000C94C1080C949200A5
:100050000C9492000C9492000C9492000C949200D8
:100060000C9492000C94920007634236B79BD8A779
:100070001A39685618AEBAAB558C1D3CB7CC5763CD
:10008000BD6DEDFD753EF6177231BF000000803F7B
:1000900008000000BE922449123EABAAAA2ABECD97
:1000A000CCCC4C3E00000080BEABAAAAAA3E000009
:1000B0000000BF000000803F000000000008417801
:1000C000D3BB4387D1133D190E3CC3BD4282AD2B38
:1000D0003E68EC8276BED98FE1A93E4C80EFFFBE30
:1000E00001C4FF7F3F000000000011241FBECFEFBE
:1000F000D8E0DEBFCDBF11E0A0E0B1E0EAEEFBE169
:1001000002C005900D92AC3FB107D9F722E0ACEFE9
:10011000B1E001C01D92A332B207E1F70E9434089A
:100120000C94F30D0C940000611102C05A9801C0A8
:100130005A9A9BB19F70282F207F922B9BB945E044
:100140004A95F1F700005B9A95E09A95F1F7000067
:100150005B9840EF4A95F1F72BB1922F9F7040E1E9
:10016000849F90011124292B2BB995E09A95F1F7E2
:1001700000005B9A45E04A95F1F700005B9890EF2C
:100180009A95F1F7611108C0843030F48FE39FE154
:100190000197F1F700C0000008955A985B982FEF7F
:1001A00089EF90E0215080409040E1F700C00000CE
:1001B0008BB18F7080638BB925E02A95F1F7000031
:1001C0005B9A85E08A95F1F700005B9890EF9A952D
:1001D000F1F78FE19EE40197F1F700C0000095E090
:1001E0009A95F1F700005B9A25E02A95F1F7000057
:1001F0005B9880EF8A95F1F78FE193E00197F1F733
:1002000000C0000095E09A95F1F700005B9A25E0A8
:100210002A95F1F700005B9880EF8A95F1F78BB192
:100220008F7080628BB995E09A95F1F700005B9A28
:1002300025E02A95F1F700005B9880EF8A95F1F7A9
:1002400060E088E20E94940060E088E00E949400F0
:1002500060E081E00E94940060E08CE00E949400E5
:1002600060E080E80E9494000895CF93DF93EC0152
:100270008881882339F0219661E00E949400899159
:100280008111FACFDF91CF910895AC01FB01DB0121
:100290009B012B5F3F4F80E38D93A217B307E1F7DC
:1002A0009A01ADECBCEC0E94C20D9695879596958F
:1002B0008795969587959C01220F331F880F991F6C
:1002C000880F991F880F991F820F931F9A01281B6F
:1002D000390BC901805D81939A010E94C20DAC0166
:1002E000569547955695479556954795411551050D
:1002F000B9F60895EFE6F0E080818D7F808328983D
:10030000449A2FEF81EE94E0215080409040E1F735
:1003100000C0000044982FEF81EE94E0215080400F
:100320009040E1F700C00000449A2FEF81EE94E086
:10033000215080409040E1F700C0000044982FEF2A
:1003400081EE94E0215080409040E1F700C0000031
:10035000449A2FEF81EE94E0215080409040E1F7E5
:1003600000C0000044984598089560E080E80E942D
:1003700094008BEB91E00E94350160E080EC0E94DC
:10038000940086EC91E00E9435012FEF83ED90E31D
:10039000215080409040E1F700C00000449A2FEFC8
:1003A00081EE94E0215080409040E1F700C00000D1
:1003B00044982FEF81EE94E0215080409040E1F787
:1003C00000C00000449A2FEF81EE94E0215080405D
:1003D0009040E1F700C0000044982FEF81EE94E0D8
:1003E000215080409040E1F700C00000449A2FEF78
:1003F00081EE94E0215080409040E1F700C0000081
:1004000044982FEF8DE399E4215080409040E1F72C
:1004100000C0000060E081E00E94940060E080E89D
:100420000E94940087ED91E00E9435012FEF83ED4B
:1004300090E3215080409040E1F700C0000060E070
:1004400081E00E9494000895EF92FF920F931F9312
:10045000CF93DF937C0160E081E00E94940060E034
:1004600080E80E9494008701E701609661E0F8014E
:1004700081918F010E9494000C171D07B9F760E06D
:1004800080EC0E9494008701005E1F4F61E089911B
:100490000E949400C017D107C9F7DF91CF911F9137
:1004A0000F91FF90EF900895CF92DF92EF92FF921D
:1004B000CF93DF93EB018130910539F5C090B60100
:1004C000D090B701E090B801F090B9012091B2014D
:1004D0003091B3014091B4015091B501C701B6010B
:1004E0000E944D0A8823ACF52DEC3CEC4CEC5DE30E
:1004F000C701B6010E94E1096093B6017093B7018C
:100500008093B8019093B90124C0892B11F5C09054
:10051000B601D090B701E090B801F090B9012DEC90
:100520003CEC4CEC5DE3C701B6010E94AC0B181625
:1005300084F42DEC3CEC4CEC5DE3C701B6010E9469
:10054000E0096093B6017093B7018093B80190936E
:10055000B901C090B201D090B301E090B401F09025
:10056000B501A70196016091B6017091B701809124
:10057000B8019091B9010E94AC0B882344F0C0925D
:10058000B601D092B701E092B801F092B90120E033
:1005900030E040E251E46091B6017091B701809182
:1005A000B8019091B9010E94B10B0E94C40ADC010C
:1005B000CB019093B1018093B0016BE172E00E9496
:1005C0004501EBE1F2E081818D878EE28E878081AB
:1005D0008F87DF91CF91FF90EF90DF90CF900895BC
:1005E000CF93DF93EB018130910589F48091AE01C7
:1005F0009091AF012091AC013091AD01821793072A
:10060000A4F40A969093AF018093AE010EC0892B9B
:1006100061F48091AE019091AF01833391052CF08C
:100620000A979093AF018093AE0167E172E08091E9
:10063000AE019091AF010E944501E7E1F2E08281B5
:10064000898381818A8380818B83DF91CF91089513
:10065000CF92DF92EF92FF928130910519F5C09011
:10066000B201D090B301E090B401F090B50120E068
:1006700030E040E850E4C701B6010E944D0A8823EB
:10068000ACF52DEC3CEC4CEC5DE3C701B6010E94EF
:10069000E1096093B2017093B3018093B401909328
:1006A000B50124C0892B11F5C090B201D090B301DF
:1006B000E090B401F090B50120E030E040E05FE36D
:1006C000C701B6010E94AC0B181684F42DEC3CEC6B
:1006D0004CEC5DE3C701B6010E94E0096093B201F2
:1006E0007093B3018093B4019093B501C090B201AF
:1006F000D090B301E090B401F090B501A70196014C
:100700006091B6017091B7018091B8019091B901E3
:100710000E94AC0B882374F0C092B601D092B7014E
:10072000E092B801F092B90162E671E082E090E0F7
:100730000E94540220E030E040E251E46091B201B6
:100740007091B3018091B4019091B5010E94B10BF9
:100750000E94C40ADC01CB019093B1018093B001E7
:100760006BE172E00E944501E0E0F1E0ABE1B2E054
:1007700011968C91119783878EE284878C9185875F
:10078000FF90EF90DF90CF9008958C3B22E092078E
:100790001CF464E170E002C06AE070E0883522E099
:1007A000920714F467E170E0843F21E0920714F4AB
:1007B0006BE170E0803921E0920714F46EE170E0A3
:1007C0008C3221E0920714F463E270E0883C9105DA
:1007D00014F468E270E08436910514F46DE270E080
:1007E000072E000C880B990B0E94FC0A2091B60181
:1007F0003091B7014091B8015091B9010E94B10BFD
:100800000E94C40ACB0108958F929F92AF92BF922B
:10081000EF92FF920F931F93CF93DF937C01CB0155
:10082000BA0148015901E70160969701205E3F4FE8
:10083000FE0140E24193E217F307E1F720E030E0E8
:1008400040E851E40E94B10BA50194010E94520AB4
:100850000E94C40A161617064CF4605F7F4F6E0D97
:100860007F1D8FEF8993C617D707E1F7DF91CF91EF
:100870001F910F91FF90EF90BF90AF909F908F903E
:100880000895E4E1F2E0818190E0C097BC01660F39
:10089000771F880F991F880F991F880F991F680F5E
:1008A000791F8281680F711D69567109072E000C2E
:1008B000880B990B0E94FC0A9B01AC016DE77CE957
:1008C00087E89FE30E941E0C20E030E04CE553E4F3
:1008D0000E94B10B20E030E040E05FE30E94E109BC
:1008E0000E94C40ACB010895CF93DF932091140294
:1008F0002C3401F5EC010E94C5039093AB01809369
:10090000AA019E01DD0F440B550B60E472E48FE0F9
:1009100090E00E94A30D220F331F30938900209393
:1009200088001092850010928400EFE6F0E080814C
:100930008260808380911402843429F4EFE6F0E031
:1009400080818D7F8083DF91CF9108950E94410443
:100950006FE172E00E944501E2E6F1E0AFE1B2E052
:1009600012968C911297828311968C9111978383A2
:100970008C91848308951092BA01EFE6F0E08081B3
:100980008D7F80832898449A2FEF89E698E1215043
:1009900080409040E1F700C00000449860E081E0B2
:1009A0000E94940083EE91E00E9435012FEF8BE7C7
:1009B00092E9215080409040E1F700C00000089586
:1009C0008091BA01811133C081E08093BA01449AC9
:1009D0002FEF81EE94E0215080409040E1F700C07D
:1009E000000044982FEF81EE94E021508040904029
:1009F000E1F700C00000449A2FEF81EE94E021500F
:100A000080409040E1F700C00000449860E081E041
:100A10000E94940080EF91E00E9435012FEF8BE758
:100A200092E9215080409040E1F700C00000089515
:100A3000CF92DF92EF92FF920F931F93CF93DF93AA
:100A4000EC017B018091A8019091A901019709F027
:100A500003C11092A9011092A80180910002909107
:100A600001028230910509F45AC02CF4009759F024
:100A70000197B1F1F1C08330910509F4B9C0049731
:100A800009F4E2C0E9C0E0918201F0918301E60F30
:100A9000F71F8081FE01E80FF11D80E280838091C5
:100AA00082019091830101968430910529F0909301
:100AB00083018093820104C010928301109282010D
:100AC000E0918201F0918301EE0DFF1D8081FE0116
:100AD000E80FF11D8EE38083CE010E942402BCC08A
:100AE00062E671E080E090E00E9454020091B20161
:100AF0001091B3012091B4013091B5014091B6013C
:100B00005091B7016091B8017091B90182E691E00E
:100B10000E94040482E691E00E9424029DC080911C
:100B2000FE019091FF01009769F5E091FC01F091C1
:100B3000FD01E60FF71F8081FE01E80FF11D80E245
:100B400080838091FC019091FD0101968230910596
:100B500029F09093FD018093FC0104C01092FD01E7
:100B60001092FC01E091FC01F091FD01EE0DFF1DE2
:100B70008081FE01E80FF11D8EE38083CE010E948B
:100B800024026AC08130910589F462E471E080E05A
:100B900090E00E94F0028091AE019091AF010E941E
:100BA000740482E491E00E94240256C0029709F086
:100BB00053C062E471E080E090E00E945402009132
:100BC000B2011091B3012091B4013091B50140916F
:100BD000B6015091B7016091B8017091B90182E4FA
:100BE00091E00E94040482E491E00E94240234C057
:100BF00000E211E08EE3F8018083C8010E94240224
:100C00000F2EF4E1CF2EF2E0DF2EF02D8CE4F60172
:100C1000808384E690E00E947404FFEF29E688E177
:100C2000F15020408040E1F700C0000084E4F6016C
:100C3000808384E690E00E94740480E2F80180835F
:100C4000C8010E94240208C080E090E00E942803AE
:100C500080E091E00E9424028091020290910302C0
:100C6000019709F049C1109203021092020280918B
:100C70000002909101028230910509F4A9C034F478
:100C8000009761F0019709F484C036C18330910563
:100C900009F4FEC0049709F427C12EC18091820196
:100CA00090918301892BF1F481E090E0909301020F
:100CB000809300020091B2011091B3012091B40120
:100CC0003091B5014091B6015091B7016091B801E2
:100CD0007091B90182E691E00E94040482E691E0FD
:100CE0000E9424028091820190918301019759F51D
:100CF00082E090E0909301028093000262E471E050
:100D00000E9454020091B2011091B3012091B401EC
:100D10003091B5014091B6015091B7016091B80191
:100D20007091B90182E491E00E94040482E491E0B0
:100D30000E9424028CE4809314028091AE01909171
:100D4000AF010E9474048091820190918301029707
:100D500051F483E090E0909301028093000280E2DE
:100D600091E00E9424028091820190918301039777
:100D700009F0C2C084E090E09093010280930002E9
:100D800082E090E00E94280380E091E00E9424022B
:100D9000B3C062E671E081E090E00E9454020091ED
:100DA000B2011091B3012091B4013091B50140918D
:100DB000B6015091B7016091B8017091B90182E616
:100DC00091E00E94040482E691E00E94240294C013
:100DD0008091FE019091FF01009721F58091FC0127
:100DE0009091FD01009739F421E030E03093FF014C
:100DF0002093FE0109C08130910531F422E030E0FA
:100E00003093FF012093FE01F701E80FF91F808165
:100E1000FE01E80FF11D8CE7808382E491E00E94DF
:100E200024026AC08130910589F462E471E081E0B6
:100E300090E00E94F0028091AE019091AF010E947B
:100E4000740482E491E00E94240256C0029709F0E3
:100E500053C062E471E081E090E00E94540200918E
:100E6000B2011091B3012091B4013091B5014091CC
:100E7000B6015091B7016091B8017091B90182E457
:100E800091E00E94040482E491E00E94240234C0B4
:100E900000E211E08EE3F801808BC8010E94240279
:100EA0000F2EF4E1CF2EF2E0DF2EF02D8CE4F601D0
:100EB000808388EC90E00E947404FFEF29E688E1CB
:100EC000F15020408040E1F700C0000084E4F601CA
:100ED000808388EC90E00E94740480E2F801808BAB
:100EE000C8010E94240208C081E090E00E9428030B
:100EF00080E091E00E94240280910402909105021A
:100F0000019709F07DC010920502109204028091B1
:100F100000029091010282309105E1F01CF40197EA
:100F200049F06EC08330910509F459C0049709F463
:100F30005FC066C0109201021092000288E891E042
:100F40000E94240284E48093140280E090E00E94D6
:100F5000740456C08091FE019091FF01009791F4B6
:100F6000109201021092000288E891E00E9424028F
:100F700084E4809314028091AE019091AF010E94AD
:100F800074043EC081309105A1F41092FF011092CB
:100F9000FE01E091FC01F091FD01EE0DFF1D80814D
:100FA000C80FD11D8EE3888382E491E00E94240261
:100FB00027C0029729F51092FF011092FE01E091DF
:100FC000FC01F091FD01EE0DFF1D8081C80FD11DC8
:100FD0008EE3888382E491E00E94240211C0109283
:100FE00001021092000288E891E00E94240208C0E9
:100FF000109201021092000288E891E00E942402FF
:101000008091060290910702019729F5109207023C
:1010100010920602809100029091010282309105A7
:1010200091F02CF4009749F0019751F014C08330EF
:10103000910561F0049769F00EC00E947A010BC01F
:101040000E94BB0408C00E94BB0405C00E94BB04F0
:1010500002C00E94E004DF91CF911F910F91FF9099
:10106000EF90DF90CF9008958FEF8AB987B983E032
:1010700084B98CEF85B981E0809368008CE380931C
:101080006B0085E085BD109280008AE0809381002E
:10109000459A87E690E00E94CB09E1ECF0E0808180
:1010A000806880830E94CD000E94B50164E871E0F1
:1010B00088E891E00E94180562E471E082E090E027
:1010C0000E94F00262E671E082E090E00E94540229
:1010D0007894C4E1D2E01FE20CE780910002909185
:1010E000010282309105C1F134F4009759F081304A
:1010F000910579F0F6CF83309105A9F184309105FF
:10110000C9F1EFCF64E871E088E891E00E9418052A
:10111000E4CF80911002909111020197B1F41092E6
:101120001102109210020E9441040E9474040E9455
:10113000A60488818C3419F40093620102C01093D4
:10114000620182E691E00E94240264E871E082E696
:1011500091E00E941805C1CF60E471E082E491E063
:101160000E941805BACF64E871E080E291E00E9425
:101170001805B3CF64E871E080E091E00E941805A3
:10118000ACCF1F920F920FB60F9211242F933F9363
:101190004F935F936F937F938F939F93AF93BF937F
:1011A000CF93DF93EF93FF930E94D8098C3451F4CF
:1011B000C4E1D2E088830E94D80989830E94D809BB
:1011C0008A830BC0843481F7C4E1D2E088830E9413
:1011D000D80989830E94D8098A8381E090E090939E
:1011E000110280931002FF91EF91DF91CF91BF9197
:1011F000AF919F918F917F916F915F914F913F91AF
:101200002F910F900FBE0F901F9018951F920F9265
:101210000FB60F9211248F939F93EF93FF93EEE6F7
:10122000F0E08081816080831C9911C080910A0266
:1012300090910B02892B59F481E090E09093A901E1
:101240008093A80190930B0280930A0238C01D99E5
:1012500011C08091080290910902892B59F481E014
:1012600090E090930302809302029093090280938E
:10127000080225C01B9911C080910C0290910D02AB
:10128000892B59F481E090E0909305028093040249
:1012900090930D0280930C0212C01A9910C0809195
:1012A0000E0290910F02892B51F481E090E090930F
:1012B00007028093060290930F0280930E02FF9123
:1012C000EF919F918F910F900FBE0F901F901895E7
:1012D0001F920F920FB60F9211242F933F938F936B
:1012E0009F938091BA018130B9F4289A8091AA0124
:1012F0009091AB011816190674F480E090E025E097
:101300002A95F1F7000001962091AA013091AB01D6
:1013100082179307A4F328989F918F913F912F9163
:101320000F900FBE0F901F9018951F920F920FB63F
:101330000F9211248F939F93EF93FF93809112024A
:101340009091130201969093130280931202419799
:10135000CCF010920D0210920C0210920B0210921F
:101360000A02109209021092080210920F021092C3
:101370000E021092130210921202EEE6F0E080814B
:101380008E7F8083FF91EF919F918F910F900FBE81
:101390000F901F9018959093C5008093C4001092F1
:1013A000C00088E18093C10086E08093C200089568
:1013B000E0ECF0E080818823ECF78091C60008958E
:1013C0005058BB27AA270E94F8090C94720B0E9460
:1013D000640B38F00E946B0B20F039F49F3F19F436
:1013E00026F40C94610B0EF4E095E7FB0C945B0B78
:1013F000E92F0E94830B58F3BA176207730784071B
:10140000950720F079F4A6F50C94A50B0EF4E09561
:101410000B2EBA2FA02D0B01B90190010C01CA01AE
:10142000A0011124FF27591B99F0593F50F4503E59
:1014300068F11A16F040A22F232F342F4427585F4B
:10144000F3CF469537952795A795F0405395C9F763
:101450007EF41F16BA0B620B730B840BBAF091501B
:10146000A1F0FF0FBB1F661F771F881FC2F70EC0BA
:10147000BA0F621F731F841F48F48795779567958D
:10148000B795F7959E3F08F0B0CF9395880F08F079
:101490009927EE0F9795879508950E94370B08F4CA
:1014A00081E008950E94660A0C94720B0E946B0BF7
:1014B00058F00E94640B40F029F45F3F29F00C942F
:1014C0005B0B51110C94A60B0C94610B0E94830BC7
:1014D00068F39923B1F3552391F3951B550BBB2763
:1014E000AA2762177307840738F09F5F5F4F220FA8
:1014F000331F441FAA1FA9F335D00E2E3AF0E0E89F
:1015000032D091505040E695001CCAF72BD0FE2FE8
:1015100029D0660F771F881FBB1F2617370748077C
:10152000AB07B0E809F0BB0B802DBF01FF27935834
:101530005F4F3AF09E3F510578F00C945B0B0C9492
:10154000A60B5F3FE4F3983ED4F3869577956795B5
:10155000B795F7959F5FC9F7880F911D9695879569
:1015600097F90895E1E0660F771F881FBB1F621788
:1015700073078407BA0720F0621B730B840BBA0B46
:10158000EE1F88F7E09508950E94CB0A6894B11188
:101590000C94A60B08950E948B0B88F09F5798F02F
:1015A000B92F9927B751B0F0E1F0660F771F881F68
:1015B000991F1AF0BA95C9F714C0B13091F00E9482
:1015C000A50BB1E008950C94A50B672F782F882701
:1015D000B85F39F0B93FCCF3869577956795B395A9
:1015E000D9F73EF490958095709561957F4F8F4F18
:1015F0009F4F0895E89409C097FB3EF4909580951D
:10160000709561957F4F8F4F9F4F9923A9F0F92FC8
:1016100096E9BB279395F695879577956795B79546
:10162000F111F8CFFAF4BB0F11F460FF1BC06F5F2C
:101630007F4F8F4F9F4F16C0882311F096E911C03E
:10164000772321F09EE8872F762F05C0662371F05F
:1016500096E8862F70E060E02AF09A95660F771F73
:10166000881FDAF7880F9695879597F90895990F4F
:101670000008550FAA0BE0E8FEEF16161706E8075C
:10168000F907C0F012161306E407F50798F0621B7D
:10169000730B840B950B39F40A2661F0232B242B52
:1016A000252B21F408950A2609F4A140A6958FEF71
:1016B000811D811D089597F99F6780E870E060E0C3
:1016C00008959FEF80EC089500240A9416161706DB
:1016D00018060906089500240A9412161306140623
:1016E00005060895092E0394000C11F4882352F086
:1016F000BB0F40F4BF2B11F460FF04C06F5F7F4F3E
:101700008F4F9F4F089557FD9058440F551F59F024
:101710005F3F71F04795880F97FB991F61F09F3FDE
:1017200079F087950895121613061406551FF2CF07
:101730004695F1DF08C0161617061806991FF1CF57
:1017400086957105610508940895E894BB2766277E
:101750007727CB0197F908950E94370B08F48FEF94
:1017600008950E94C40B0C94720B0E94640B38F015
:101770000E946B0B20F0952311F00C945B0B0C94E2
:10178000610B11240C94A60B0E94830B70F3959FA0
:10179000C1F3950F50E0551F629FF001729FBB2768
:1017A000F00DB11D639FAA27F00DB11DAA1F649F04
:1017B0006627B00DA11D661F829F2227B00DA11DB7
:1017C000621F739FB00DA11D621F839FA00D611D3D
:1017D000221F749F3327A00D611D231F849F600D5E
:1017E000211D822F762F6A2F11249F5750409AF087
:1017F000F1F088234AF0EE0FFF1FBB1F661F771F13
:10180000881F91505040A9F79E3F510580F00C94DD
:101810005B0B0C94A60B5F3FE4F3983ED4F38695E4
:1018200077956795B795F795E7959F5FC1F7FE2B7D
:10183000880F911D9695879597F90895FA01EE0FF7
:10184000FF1F309621053105A1F16115710561F485
:101850008038BFE39B0749F168949038810561F0B7
:101860008038BFEF9B0741F099234AF5FF3FE10520
:101870003105210519F1E8940894E795D901AA23C7
:1018800029F4AB2FBE2FF85FD0F310C0FF5F70F4C8
:10189000A695E0F7F73950F019F0FF3A38F49F7742
:1018A0009F930DD00F9007FC9058089546F00C942C
:1018B000610B60E070E080E89FE308954FE79F7759
:1018C0005F934F933F932F930E94190D2F913F9158
:1018D0004F915F910E94B10B0C94760C29F416F095
:1018E0000C945B0B0C94A50B0C94610B0E948B0B5E
:1018F000A8F39638A0F707F80F92E8942BE33AEA9A
:1019000048EB5FE70E94C70B0F920F920F924DB703
:101910005EB70F920E94610DE8E6F0E00E94A80C0D
:101920004F915F91EF91FF91E595EE1FFF1F49F0F9
:10193000FE57E0684427EE0F441FFA95E1F7419502
:10194000550B0E94DB0C0F9007FE0C94CF0C0895F2
:10195000DF93CF931F930F93FF92EF92DF927B0160
:101960008C01689406C0DA2EEF010E94C40BFE01C0
:10197000E894A5912591359145915591A6F3EF01F4
:101980000E94F809FE019701A801DA9469F7DF9037
:10199000EF90FF900F911F91CF91DF9108959B01E0
:1019A000AC0160E070E080E89FE30C94520A0C9474
:1019B0005B0B0C94950D0E948B0BD8F39923C9F304
:1019C000940F511DA3F39150504094F059F0882387
:1019D00032F0660F771F881F91505040C1F79E3F2D
:1019E00051052CF7880F911D9695879597F90895C5
:1019F0005F3FACF0983E9CF0BB2786957795679546
:101A0000B79508F4B1609395C1F7BB0F58F711F47F
:101A100060FFE8CF6F5F7F4F8F4F9F4FE3CF0C94F6
:101A2000A60B16F00C94950D0C94610B68940C9415
:101A30005B0B0E948B0BA8F39923C1F3AEF3DF93EA
:101A4000CF931F930F93FF92C92FDD2788232AF08E
:101A50002197660F771F881FDAF720E030E040E813
:101A60005FEB9FE3883920F0803E38F021968F7736
:101A70000E94E109E0E9F0E004C00E94E109EDEB19
:101A8000F0E00E94A80C8B01BE01EC01FB2E6F5709
:101A900071097595771F880B990B0E94FC0A28E144
:101AA00032E741E35FE30E94C40BAF2D9801AE0122
:101AB000FF900F911F91CF91DF910E94F8090C9434
:101AC000720BFA01DC01AA0FBB1F9B01AC01BF57CF
:101AD00028F4222733274427507820C0B75190F4A8
:101AE000AB2F0024469537952795011CA395D2F37B
:101AF000002071F0220F331F441FB395DAF30ED08C
:101B00000C94E00961307105A0E88A07B94630F409
:101B10009B01AC016627772788279078309621F0C3
:101B2000208331834283538308959F3F31F0915046
:101B300020F4879577956795B795880F911D9695B1
:101B4000879597F90895052E97FB1EF400940E943F
:101B5000BA0D57FD07D00E94D10D07FC03D04EF4FB
:101B60000C94BA0D50954095309521953F4F4F4FAD
:101B70005F4F089590958095709561957F4F8F4F39
:101B80009F4F0895A29FB001B39FC001A39F700D06
:101B9000811D1124911DB29F700D811D1124911D75
:101BA0000895A1E21A2EAA1BBB1BFD010DC0AA1F9E
:101BB000BB1FEE1FFF1FA217B307E407F50720F0B6
:101BC000A21BB30BE40BF50B661F771F881F991F31
:101BD0001A9469F760957095809590959B01AC017A
:0A1BE000BD01CF010895F894FFCF76
:101BEA002050575F6C696D69743A202020202020AC
:101BFA002056657273696F6E20302E373020202090
:101C0A002042313A20313030487A403530306D53F5
:101C1A002042323A20323030487A403530306D53E3
:101C2A0000093E343430487A2020202050573A3177
:101C3A002E3220202020202020202020202020207A
:101C4A0020202020202020487A20202050573A3176
:101C5A002E37202020202020202020202020202055
:101C6A002020030000071017204D49444920202056
:101C7A0046697865642020202054657374202020EA
:101C8A0053657474696E67730100C800F401DC005F
:101C9A000100000000400000803F01506169766148
:101CAA002773205443003332385020496E746572CA
:101CBA007275707465720056657273696F6E203042
:101CCA002E370044697361626C6564206F75740015
:0C1CDA00456E61626C6564206F757400DB
:00000001FF
