:100000000C9475000C9492000C9492000C94BA0815
:100010000C9492000C9492000C9492000C94920018
:100020000C9492000C9492000C9492000C9413097E
:100030000C9492000C9492000C9492000C949200F8
:100040000C9492000C9492000C9475080C949200FD
:100050000C9492000C9492000C9492000C949200D8
:100060000C9492000C94920007634236B79BD8A779
:100070001A39685618AEBAAB558C1D3CB7CC5763CD
:10008000BD6DEDFD753EF6177231BF000000803F7B
:1000900008000000BE922449123EABAAAA2ABECD97
:1000A000CCCC4C3E00000080BEABAAAAAA3E000009
:1000B0000000BF000000803F000000000008417801
:1000C000D3BB4387D1133D190E3CC3BD4282AD2B38
:1000D0003E68EC8276BED98FE1A93E4C80EFFFBE30
:1000E00001C4FF7F3F000000000011241FBECFEFBE
:1000F000D8E0DEBFCDBF11E0A0E0B1E0ECECFAE16A
:1001000002C005900D92A23EB107D9F722E0A2EEFF
:10011000B1E001C01D92A730B207E1F70E94BC0711
:100120000C94640D0C940000611102C05A9801C037
:100130005A9A9BB19F70282F207F922B9BB945E044
:100140004A95F1F700005B9A95E09A95F1F7000067
:100150005B9840EF4A95F1F72BB1922F9F7040E1E9
:10016000849F90011124292B2BB995E09A95F1F7E2
:1001700000005B9A45E04A95F1F700005B9890EF2C
:100180009A95F1F7611108C0843030F48FE39FE154
:100190000197F1F700C0000008955A985B982FEF7F
:1001A00089EF90E0215080409040E1F700C00000CE
:1001B0008BB18F7080638BB925E02A95F1F7000031
:1001C0005B9A85E08A95F1F700005B9890EF9A952D
:1001D000F1F78FE19EE40197F1F700C0000095E090
:1001E0009A95F1F700005B9A25E02A95F1F7000057
:1001F0005B9880EF8A95F1F78FE193E00197F1F733
:1002000000C0000095E09A95F1F700005B9A25E0A8
:100210002A95F1F700005B9880EF8A95F1F78BB192
:100220008F7080628BB995E09A95F1F700005B9A28
:1002300025E02A95F1F700005B9880EF8A95F1F7A9
:1002400060E088E20E94940060E088E00E949400F0
:1002500060E081E00E94940060E08CE00E949400E5
:1002600060E080E80E9494000895CF93DF93EC0152
:100270008881882339F0219661E00E949400899159
:100280008111FACFDF91CF910895AC01FB01DB0121
:100290009B012B5F3F4F80E38D93A217B307E1F7DC
:1002A0009A01ADECBCEC0E94330D9695879596951E
:1002B0008795969587959C01220F331F880F991F6C
:1002C000880F991F880F991F820F931F9A01281B6F
:1002D000390BC901805D81939A010E94330DAC01F5
:1002E000569547955695479556954795411551050D
:1002F000B9F6089560E080E80E9494008AEB91E0EE
:100300000E94350160E080EC0E94940085EC91E051
:100310000E9435012FEF83ED90E321508040904003
:10032000E1F700C00000449A2FEF81EE94E02150E5
:1003300080409040E1F700C0000044982FEF81EE2C
:1003400094E0215080409040E1F700C00000449AC2
:100350002FEF81EE94E0215080409040E1F700C003
:10036000000044982FEF81EE94E0215080409040AF
:10037000E1F700C00000449A2FEF81EE94E0215095
:1003800080409040E1F700C0000044982FEF8DE3DB
:1003900099E4215080409040E1F700C0000060E007
:1003A00081E00E94940060E080E80E94940086ED65
:1003B00091E00E9435012FEF83ED90E321508040C2
:1003C0009040E1F700C0000060E081E00E949400EE
:1003D0000895EF92FF920F931F93CF93DF937C01C9
:1003E00060E081E00E94940060E080E80E94940058
:1003F0008701E701609661E0F80181918F010E9419
:1004000094000C171D07B9F760E080EC0E9494007F
:100410008701005E1F4F61E089910E949400C01720
:10042000D107C9F7DF91CF911F910F91FF90EF9006
:100430000895CF92DF92EF92FF92CF93DF93EB017B
:100440008130910539F5C090B601D090B701E090A8
:10045000B801F090B9012091B2013091B3014091FF
:10046000B4015091B501C701B6010E94BE098823AD
:10047000ACF52DEC3CEC4CEC5DE3C701B6010E9401
:1004800052096093B6017093B7018093B8019093BD
:10049000B90124C0892B11F5C090B601D090B701E5
:1004A000E090B801F090B9012DEC3CEC4CEC5DE330
:1004B000C701B6010E941D0B181684F42DEC3CEC0C
:1004C0004CEC5DE3C701B6010E9451096093B6018F
:1004D0007093B7018093B8019093B901C090B201B5
:1004E000D090B301E090B401F090B501A70196015E
:1004F0006091B6017091B7018091B8019091B901F6
:100500000E941D0B882344F0C092B601D092B7011F
:10051000E092B801F092B90120E030E040E251E40D
:100520006091B6017091B7018091B8019091B901C5
:100530000E94220B0E94350ADC01CB019093B1018D
:100540008093B0016FEF71E00E944501EFEFF1E0A1
:1005500081818D878EE28E8780818F87DF91CF9119
:10056000FF90EF90DF90CF900895CF93DF93EB0152
:100570008130910589F48091AE019091AF01209175
:10058000AC013091AD0182179307A4F40A969093C1
:10059000AF018093AE010EC0892B61F48091AE0152
:1005A0009091AF01833391052CF00A979093AF019E
:1005B0008093AE016BEF71E08091AE019091AF013D
:1005C0000E944501EBEFF1E08281898381818A837A
:1005D00080818B83DF91CF910895CF92DF92EF924C
:1005E000FF928130910519F5C090B201D090B3010E
:1005F000E090B401F090B50120E030E040E850E434
:10060000C701B6010E94BE098823ACF52DEC3CEC75
:100610004CEC5DE3C701B6010E9452096093B20140
:100620007093B3018093B4019093B50124C0892BDA
:1006300011F5C090B201D090B301E090B401F090F8
:10064000B50120E030E040E05FE3C701B6010E9461
:100650001D0B181684F42DEC3CEC4CEC5DE3C7014B
:10066000B6010E9451096093B2017093B301809367
:10067000B4019093B501C090B201D090B301E09065
:10068000B401F090B501A70196016091B601709197
:10069000B7018091B8019091B9010E941D0B882388
:1006A00074F0C092B601D092B701E092B801F09216
:1006B000B90162E671E082E090E00E94190220E058
:1006C00030E040E251E46091B2017091B301809159
:1006D000B4019091B5010E94220B0E94350ADC0101
:1006E000CB019093B1018093B0016FEF71E00E9454
:1006F0004501E0E0F1E0AFEFB1E011968C91119788
:1007000083878EE284878C918587FF90EF90DF90BE
:10071000CF9008958C3B22E092071CF464E170E0D6
:1007200002C06AE070E0883522E0920714F467E1C5
:1007300070E0843F21E0920714F46BE170E08039AF
:1007400021E0920714F46EE170E08C3221E0920710
:1007500014F463E270E0883C910514F468E270E000
:100760008436910514F46DE270E0072E000C880BBE
:10077000990B0E946D0A2091B6013091B70140910A
:10078000B8015091B9010E94220B0E94350ACB0199
:1007900008958F929F92AF92BF92EF92FF920F9324
:1007A0001F93CF93DF937C01CB01BA01480159011C
:1007B000E70160969701205E3F4FFE0140E24193C2
:1007C000E217F307E1F720E030E040E851E40E944F
:1007D000220BA50194010E94C3090E94350A161636
:1007E00017064CF4605F7F4F6E0D7F1D8FEF89936E
:1007F000C617D707E1F7DF91CF911F910F91FF90B7
:10080000EF90BF90AF909F908F900895E8EFF1E048
:10081000818190E0C097BC01660F771F880F991FF8
:10082000880F991F880F991F680F791F8281680FA1
:10083000711D69567109072E000C880B990B0E94D7
:100840006D0A9B01AC016DE77CE987E89FE30E949C
:100850008F0B20E030E04CE553E40E94220B20E0B7
:1008600030E040E05FE30E9452090E94350ACB016C
:100870000895CF93DF932091F8012C3401F5EC011A
:100880000E948A039093AB018093AA019E01DD0F21
:10089000440B550B60E472E48FE090E00E94140D6D
:1008A000220F331F30938900209388001092850017
:1008B00010928400EFE6F0E0808182608083809176
:1008C000F801843429F4EFE6F0E080818D7F8083A5
:1008D000DF91CF910895CF92DF92EF92FF920F9325
:1008E0001F93CF93DF93EC017B018091A80190913E
:1008F000A901019709F003C11092A9011092A80162
:100900008091E6019091E7018230910509F45AC087
:100910002CF4009759F00197B1F1F1C083309105A3
:1009200009F4B9C0049709F4E2C0E9C0E09182017A
:10093000F0918301E60FF71F8081FE01E80FF11DA2
:1009400080E28083809182019091830101968430BE
:10095000910529F0909383018093820104C0109245
:10096000830110928201E0918201F0918301EE0DEA
:10097000FF1D8081FE01E80FF11D8EE38083CE0113
:100980000E94E901BCC062E671E080E090E00E9454
:1009900019020091B2011091B3012091B40130917C
:1009A000B5014091B6015091B7016091B8017091C5
:1009B000B90182E691E00E94C90382E691E00E94BB
:1009C000E9019DC08091E4019091E501009769F5EE
:1009D000E091E201F091E301E60FF71F8081FE0153
:1009E000E80FF11D80E280838091E2019091E301A4
:1009F00001968230910529F09093E3018093E20102
:100A000004C01092E3011092E201E091E201F09142
:100A1000E301EE0DFF1D8081FE01E80FF11D8EE365
:100A20008083CE010E94E9016AC08130910589F47A
:100A300062E471E080E090E00E94B5028091AE0136
:100A40009091AF010E94390482E491E00E94E90193
:100A500056C0029709F053C062E471E080E090E074
:100A60000E9419020091B2011091B3012091B401CA
:100A70003091B5014091B6015091B7016091B80134
:100A80007091B90182E491E00E94C90382E491E08F
:100A90000E94E90134C000E211E08EE3F801808396
:100AA000C8010E94E9010F2EF8EFCF2EF1E0DF2EF2
:100AB000F02D8CE4F601808384E690E00E943904F6
:100AC000FFEF29E688E1F15020408040E1F700C0C7
:100AD000000084E4F601808384E690E00E943904FB
:100AE00080E2F8018083C8010E94E90108C080E02B
:100AF00090E00E94ED0280E091E00E94E901809187
:100B0000E8019091E901019709F049C11092E901CA
:100B10001092E8018091E6019091E7018230910501
:100B200009F4A9C034F4009761F0019709F484C076
:100B300036C18330910509F4FEC0049709F427C13A
:100B40002EC18091820190918301892BF1F481E083
:100B500090E09093E7018093E6010091B20110913B
:100B6000B3012091B4013091B5014091B60150918B
:100B7000B7016091B8017091B90182E691E00E94DD
:100B8000C90382E691E00E94E9018091820190917F
:100B90008301019759F582E090E09093E7018093FB
:100BA000E60162E471E00E9419020091B201109125
:100BB000B3012091B4013091B5014091B60150913B
:100BC000B7016091B8017091B90182E491E00E948F
:100BD000C90382E491E00E94E9018CE48093F8016A
:100BE0008091AE019091AF010E9439048091820101
:100BF00090918301029751F483E090E09093E70194
:100C00008093E60180E291E00E94E90180918201F7
:100C100090918301039709F0C2C084E090E0909323
:100C2000E7018093E60182E090E00E94ED0280E01F
:100C300091E00E94E901B3C062E671E081E090E0DA
:100C40000E9419020091B2011091B3012091B401E8
:100C50003091B5014091B6015091B7016091B80152
:100C60007091B90182E691E00E94C90382E691E0A9
:100C70000E94E90194C08091E4019091E501009700
:100C800021F58091E2019091E301009739F421E090
:100C900030E03093E5012093E40109C081309105F3
:100CA00031F422E030E03093E5012093E401F701D4
:100CB000E80FF91F8081FE01E80FF11D8CE78083AA
:100CC00082E491E00E94E9016AC08130910589F4D3
:100CD00062E471E081E090E00E94B5028091AE0193
:100CE0009091AF010E94390482E491E00E94E901F1
:100CF00056C0029709F053C062E471E081E090E0D1
:100D00000E9419020091B2011091B3012091B40127
:100D10003091B5014091B6015091B7016091B80191
:100D20007091B90182E491E00E94C90382E491E0EC
:100D30000E94E90134C000E211E08EE3F801808BEB
:100D4000C8010E94E9010F2EF8EFCF2EF1E0DF2E4F
:100D5000F02D8CE4F601808388EC90E00E94390449
:100D6000FFEF29E688E1F15020408040E1F700C024
:100D7000000084E4F601808388EC90E00E9439044E
:100D800080E2F801808BC8010E94E90108C081E07F
:100D900090E00E94ED0280E091E00E94E9018091E4
:100DA000EA019091EB01019709F07DC01092EB01EF
:100DB0001092EA018091E6019091E701823091055D
:100DC000E1F01CF4019749F06EC08330910509F4FD
:100DD00059C0049709F45FC066C01092E7011092F1
:100DE000E60188E891E00E94E90184E48093F8013B
:100DF00080E090E00E94390456C08091E401909117
:100E0000E501009791F41092E7011092E60188E85D
:100E100091E00E94E90184E48093F8018091AE01A1
:100E20009091AF010E9439043EC081309105A1F438
:100E30001092E5011092E401E091E201F091E301EA
:100E4000EE0DFF1D8081C80FD11D8EE3888382E4E3
:100E500091E00E94E90127C0029729F51092E5016F
:100E60001092E401E091E201F091E301EE0DFF1D2B
:100E70008081C80FD11D8EE3888382E491E00E94B7
:100E8000E90111C01092E7011092E60188E891E0B3
:100E90000E94E90108C01092E7011092E60188E87B
:100EA00091E00E94E9018091EC019091ED010197A0
:100EB00009F044C01092ED011092EC018091E6011E
:100EC0009091E701892BD1F5EFE6F0E080818D7FED
:100ED00080832898449AFFEF21EE84E0F15020406F
:100EE0008040E1F700C0000044989FEFE1EEF4E09D
:100EF0009150E040F040E1F700C00000449A2FEF2D
:100F000081EE94E0215080409040E1F700C0000065
:100F10004498EFEFF1EE24E0E150F0402040E1F79B
:100F200000C00000449A8FEF91EEE4E081509040C1
:100F3000E040E1F700C0000044984598DF91CF9170
:100F40001F910F91FF90EF90DF90CF9008950E9436
:100F5000060463E072E00E944501E2E6F1E0A3E0EE
:100F6000B2E012968C911297828311968C91119710
:100F700083838C91848308958FEF8AB987B983E046
:100F800084B98CEF85B981E0809368008CE380930D
:100F90006B00109280008AE080938100459A87E67A
:100FA00090E00E943C09E1ECF0E080818068808361
:100FB0000E94CD000E947A0164E871E088E891E027
:100FC0000E946B0462E471E082E090E00E94B5024E
:100FD00062E671E082E090E00E9419027894C8EF26
:100FE000D1E01FE20CE78091E6019091E7018230A9
:100FF0009105B1F12CF4009749F0019771F044C0CC
:1010000083309105A1F10497C9F13EC064E871E015
:1010100088E891E00E946B0437C08091F6019091BE
:10102000F7010197B1F41092F7011092F6010E94B6
:1010300006040E9439040E94A70788818C3419F4A1
:101040000093620102C01093620182E691E00E9467
:10105000E90164E871E082E691E00E946B0414C04B
:1010600060E471E082E491E00E946B040DC064E8EA
:1010700071E080E291E00E946B0406C064E871E0D8
:1010800080E091E00E946B048091E6019091E7017D
:101090000197D1F02FEF89E698E1215080409040F0
:1010A000E1F700C000001092F3011092F2011092DB
:1010B000F1011092F0011092EF011092EE011092E6
:1010C000F5011092F4018FCF1092F3011092F2010A
:1010D0001092F1011092F0011092EF011092EE01C6
:1010E0001092F5011092F4017ECF1F920F920FB66D
:1010F0000F9211242F933F934F935F936F937F939E
:101100008F939F93AF93BF93CF93DF93EF93FF930F
:101110000E9449098C3451F4C8EFD1E088830E94C1
:10112000490989830E9449098A830BC0843481F765
:10113000C8EFD1E088830E94490989830E94490948
:101140008A8381E090E09093F7018093F601FF910C
:10115000EF91DF91CF91BF91AF919F918F917F914F
:101160006F915F914F913F912F910F900FBE0F9014
:101170001F9018951F920F920FB60F9211248F9304
:101180009F931C9911C08091F0019091F101892BDE
:1011900059F481E090E09093A9018093A801909385
:1011A000F1018093F00138C01D9911C08091EE01CA
:1011B0009091EF01892B59F481E090E09093E9013F
:1011C0008093E8019093EF018093EE0125C01B9975
:1011D00011C08091F2019091F301892B59F481E0C3
:1011E00090E09093EB018093EA019093F301809358
:1011F000F20112C01A9910C08091F4019091F5018A
:10120000892B51F481E090E09093ED018093EC0103
:101210009093F5018093F4019F918F910F900FBEF1
:101220000F901F9018951F920F920FB60F921124D6
:101230002F933F938F939F93289A8091AA01909127
:10124000AB011816190674F480E090E025E02A95A9
:10125000F1F7000001962091AA013091AB018217AD
:101260009307A4F328989F918F913F912F910F900E
:101270000FBE0F901F9018959093C5008093C400E7
:101280001092C00088E18093C10086E08093C20084
:101290000895E0ECF0E080818823ECF78091C600AF
:1012A00008955058BB27AA270E9469090C94E30AA5
:1012B0000E94D50A38F00E94DC0A20F039F49F3FE2
:1012C00019F426F40C94D20A0EF4E095E7FB0C9482
:1012D000CC0AE92F0E94F40A58F3BA176207730781
:1012E0008407950720F079F4A6F50C94160B0EF4FC
:1012F000E0950B2EBA2FA02D0B01B90190010C0126
:10130000CA01A0011124FF27591B99F0593F50F43D
:10131000503E68F11A16F040A22F232F342F442795
:10132000585FF3CF469537952795A795F04053958D
:10133000C9F77EF41F16BA0B620B730B840BBAF05D
:101340009150A1F0FF0FBB1F661F771F881FC2F7C8
:101350000EC0BA0F621F731F841F48F487957795DC
:101360006795B795F7959E3F08F0B0CF9395880F96
:1013700008F09927EE0F9795879508950E94A80A7F
:1013800008F481E008950E94D7090C94E30A0E94B2
:10139000DC0A58F00E94D50A40F029F45F3F29F09A
:1013A0000C94CC0A51110C94170B0C94D20A0E9485
:1013B000F40A68F39923B1F3552391F3951B550B68
:1013C000BB27AA2762177307840738F09F5F5F4F18
:1013D000220F331F441FAA1FA9F335D00E2E3AF057
:1013E000E0E832D091505040E695001CCAF72BD06F
:1013F000FE2F29D0660F771F881FBB1F26173707C0
:101400004807AB07B0E809F0BB0B802DBF01FF27F1
:1014100093585F4F3AF09E3F510578F00C94CC0AF8
:101420000C94170B5F3FE4F3983ED4F386957795C1
:101430006795B795F7959F5FC9F7880F911D9695AA
:10144000879597F90895E1E0660F771F881FBB1F06
:10145000621773078407BA0720F0621B730B840BB3
:10146000BA0BEE1F88F7E09508950E943C0A689435
:10147000B1110C94170B08950E94FC0A88F09F5735
:1014800098F0B92F9927B751B0F0E1F0660F771FA8
:10149000881F991F1AF0BA95C9F714C0B13091F09E
:1014A0000E94160BB1E008950C94160B672F782F4D
:1014B0008827B85F39F0B93FCCF386957795679563
:1014C000B395D9F73EF490958095709561957F4FCF
:1014D0008F4F9F4F0895E89409C097FB3EF4909575
:1014E0008095709561957F4F8F4F9F4F9923A9F0FD
:1014F000F92F96E9BB279395F6958795779567958C
:10150000B795F111F8CFFAF4BB0F11F460FF1BC0CF
:101510006F5F7F4F8F4F9F4F16C0882311F096E962
:1015200011C0772321F09EE8872F762F05C0662310
:1015300071F096E8862F70E060E02AF09A95660FC9
:10154000771F881FDAF7880F9695879597F9089582
:10155000990F0008550FAA0BE0E8FEEF16161706C4
:10156000E807F907C0F012161306E407F50798F02C
:10157000621B730B840B950B39F40A2661F0232B45
:10158000242B252B21F408950A2609F4A140A695C1
:101590008FEF811D811D089597F99F6780E870E0A6
:1015A00060E008959FEF80EC089500240A941616D9
:1015B000170618060906089500240A941216130641
:1015C000140605060895092E0394000C11F48823CF
:1015D00052F0BB0F40F4BF2B11F460FF04C06F5FEB
:1015E0007F4F8F4F9F4F089557FD9058440F551FC1
:1015F00059F05F3F71F04795880F97FB991F61F095
:101600009F3F79F087950895121613061406551F0B
:10161000F2CF4695F1DF08C0161617061806991F77
:10162000F1CF86957105610508940895E894BB276C
:1016300066277727CB0197F908950E94A80A08F436
:101640008FEF08950E94350B0C94E30A0E94D50A8F
:1016500038F00E94DC0A20F0952311F00C94CC0A9B
:101660000C94D20A11240C94170B0E94F40A70F304
:10167000959FC1F3950F50E0551F629FF001729F37
:10168000BB27F00DB11D639FAA27F00DB11DAA1F46
:10169000649F6627B00DA11D661F829F2227B00D93
:1016A000A11D621F739FB00DA11D621F839FA00D1E
:1016B000611D221F749F3327A00D611D231F849F6E
:1016C000600D211D822F762F6A2F11249F575040C5
:1016D0009AF0F1F088234AF0EE0FFF1FBB1F661F40
:1016E000771F881F91505040A9F79E3F510580F009
:1016F0000C94CC0A0C94170B5F3FE4F3983ED4F3A0
:10170000869577956795B795F795E7959F5FC1F7AC
:10171000FE2B880F911D9695879597F90895FA01EC
:10172000EE0FFF1F309621053105A1F161157105FE
:1017300061F48038BFE39B0749F1689490388105D4
:1017400061F08038BFEF9B0741F099234AF5FF3FD6
:10175000E1053105210519F1E8940894E795D901CF
:10176000AA2329F4AB2FBE2FF85FD0F310C0FF5F80
:1017700070F4A695E0F7F73950F019F0FF3A38F415
:101780009F779F930DD00F9007FC9058089546F0D7
:101790000C94D20A60E070E080E89FE308954FE780
:1017A0009F775F934F933F932F930E948A0C2F91C3
:1017B0003F914F915F910E94220B0C94E70B29F40B
:1017C00016F00C94CC0A0C94160B0C94D20A0E94BE
:1017D000FC0AA8F39638A0F707F80F92E8942BE3D9
:1017E0003AEA48EB5FE70E94380B0F920F920F9294
:1017F0004DB75EB70F920E94D20CE8E6F0E00E946F
:10180000190C4F915F91EF91FF91E595EE1FFF1F2E
:1018100049F0FE57E0684427EE0F441FFA95E1F7C0
:101820004195550B0E944C0C0F9007FE0C94400CF8
:101830000895DF93CF931F930F93FF92EF92DF9260
:101840007B018C01689406C0DA2EEF010E94350BF3
:10185000FE01E894A5912591359145915591A6F306
:10186000EF010E946909FE019701A801DA9469F766
:10187000DF90EF90FF900F911F91CF91DF9108952E
:101880009B01AC0160E070E080E89FE30C94C30929
:101890000C94CC0A0C94060D0E94FC0AD8F39923F0
:1018A000C9F3940F511DA3F39150504094F059F097
:1018B000882332F0660F771F881F91505040C1F780
:1018C0009E3F51052CF7880F911D9695879597F9A6
:1018D00008955F3FACF0983E9CF0BB2786957795C6
:1018E0006795B79508F4B1609395C1F7BB0F58F7AA
:1018F00011F460FFE8CF6F5F7F4F8F4F9F4FE3CFB3
:101900000C94170B16F00C94060D0C94D20A6894E4
:101910000C94CC0A0E94FC0AA8F39923C1F3AEF3FD
:10192000DF93CF931F930F93FF92C92FDD27882357
:101930002AF02197660F771F881FDAF720E030E042
:1019400040E85FEB9FE3883920F0803E38F0219635
:101950008F770E945209E0E9F0E004C00E9452092A
:10196000EDEBF0E00E94190C8B01BE01EC01FB2EA7
:101970006F5771097595771F880B990B0E946D0A37
:1019800028E132E741E35FE30E94350BAF2D980178
:10199000AE01FF900F911F91CF91DF910E946909D5
:1019A0000C94E30AFA01DC01AA0FBB1F9B01AC01F6
:1019B000BF5728F4222733274427507820C0B75137
:1019C00090F4AB2F0024469537952795011CA395DD
:1019D000D2F3002071F0220F331F441FB395DAF3C6
:1019E0000ED00C94510961307105A0E88A07B94600
:1019F00030F49B01AC0166277727882790783096D2
:101A000021F0208331834283538308959F3F31F037
:101A1000915020F4879577956795B795880F911D1C
:101A20009695879597F90895052E97FB1EF40094D7
:101A30000E942B0D57FD07D00E94420D07FC03D0DA
:101A40004EF40C942B0D50954095309521953F4FB9
:101A50004F4F5F4F089590958095709561957F4F9A
:101A60008F4F9F4F0895A29FB001B39FC001A39FC6
:101A7000700D811D1124911DB29F700D811D1124C7
:101A8000911D0895A1E21A2EAA1BBB1BFD010DC0DA
:101A9000AA1FBB1FEE1FFF1FA217B307E407F5071E
:101AA00020F0A21BB30BE40BF50B661F771F881FFA
:101AB000991F1A9469F760957095809590959B0190
:0C1AC000AC01BD01CF010895F894FFCFE8
:101ACC002050575F6C696D69743A202020202020CB
:101ADC002056657273696F6E20302E3730202020AF
:101AEC002042313A20313030487A403530306D5315
:101AFC002042323A20323030487A403530306D5303
:101B0C0000093E343430487A2020202050573A3196
:101B1C002E32202020202020202020202020202099
:101B2C0020202020202020487A20202050573A3195
:101B3C002E37202020202020202020202020202074
:101B4C002020030000071017204D49444920202075
:101B5C004669786564202020205465737420202009
:101B6C0053657474696E67730100C800F401DC007E
:101B7C000100000000400000803F50616976612741
:101B8C0073205443003332385020496E746572729E
:101B9C0075707465720056657273696F6E20302EA5
:021BAC00370000
:00000001FF
