S020000041746D6567613332385F54435F496E7465727275707465722E737265631F
S11300000C9434000C9451000C9451000C94D104C1
S11300100C9451000C9451000C9451000C94510018
S11300200C9451000C9451000C9451000C94510008
S11300300C9451000C9451000C9451000C945100F8
S11300400C9451000C9451000C9451000C945100E8
S11300500C9451000C9451000C9451000C945100D8
S11300600C9451000C94510011241FBECFEFD8E022
S1130070DEBFCDBF11E0A0E0B1E0E2E5FEE002C0EA
S113008005900D92AA3EB107D9F721E0AAEEB1E09E
S113009001C01D92AA3FB207E1F70E9471040C94BB
S11300A027070C940000611102C05A9801C05A9AA3
S11300B09BB19F70282F207F922B9BB945E04A95D6
S11300C0F1F700005B9A95E09A95F1F700005B98D0
S11300D040EF4A95F1F72BB1922F9F7040E1849F36
S11300E090011124292B2BB995E09A95F1F7000082
S11300F05B9A45E04A95F1F700005B9890EF9A957A
S1130100F1F7611108C0843030F48FE39FE1019767
S1130110F1F700C0000008955A985B982FEF89EF1B
S113012090E0215080409040E1F700C000008BB186
S11301308F7080638BB925E02A95F1F700005B9AF4
S113014085E08A95F1F700005B9890EF9A95F1F7B6
S11301508FE19EE40197F1F700C0000095E09A95C5
S1130160F1F700005B9A25E02A95F1F700005B980F
S113017080EF8A95F1F78FE193E00197F1F700C0E2
S1130180000095E09A95F1F700005B9A25E02A9526
S1130190F1F700005B9880EF8A95F1F78BB18F70CF
S11301A080628BB995E09A95F1F700005B9A25E09F
S11301B02A95F1F700005B9880EF8A95F1F760E0EB
S11301C088E20E94530060E088E00E94530060E0EF
S11301D081E00E94530060E08CE00E94530060E0E4
S11301E080E80E9453000895CF93DF93EC01888147
S11301F0882339F0219661E00E945300899181118E
S1130200FACFDF91CF910895AC01FB01DB019B0193
S11302102B5F3F4F80E38D93A217B307E1F79A0159
S1130220ADECBCEC0E94180796958795969587953A
S1130230969587959C01220F331F880F991F880F6D
S1130240991F880F991F820F931F9A01281B390B3E
S1130250C901805D81939A010E941807AC015695EB
S11302604795569547955695479541155105B9F6C5
S113027008958F929F92AF92BF92EF92FF920F9345
S11302801F93CF93DF937C01CB01BA01480159013D
S1130290E70160969701205E3F4FFE0140E24193E3
S11302A0E217F307E1F720E030E040E851E40E9470
S11302B0AB06A50194010E9489050E94FB05161650
S11302C017064CF4605F7F4F6E0D7F1D8FEF89938F
S11302D0C617D707E1F7DF91CF911F910F91FF90D8
S11302E0EF90BF90AF909F908F90089560E080E86A
S11302F00E94530082EC91E00E94F40060E080ECE4
S11303000E9453008DEC91E00E94F4002FEF85EAE7
S11303109EE0215080409040E1F700C0000060E082
S113032081E00E94530060E080E80E9453008EED5B
S113033091E00E94F4002FEF81EE94E02150804080
S11303409040E1F700C0000060E081E00E945300AB
S11303500895CF92DF92EF92FF92CF93DF93EB0158
S11303608130910539F5C090BE01D090BF01E09075
S1130370C001F090C1012091BA013091BB014091BC
S1130380BC015091BD01C701B6010E9484058823B8
S1130390A4F52DEC3CEC4CEC5DE3C701B6010E94E6
S11303A018056093BE017093BF018093C0019093C0
S11303B0C10123C0892B09F5C090BE01D090BF01B3
S11303C0E090C001F090C10120E030E0A901C70134
S11303D0B6010E94A606181684F42DEC3CEC4CECF5
S11303E05DE3C701B6010E9417056093BE017093D7
S11303F0BF018093C0019093C101C090BA01D09015
S1130400BB01E090BC01F090BD01A7019601609191
S1130410BE017091BF018091C0019091C1010E9401
S1130420A606882344F0C092BE01D092BF01E09298
S1130430C001F092C10120E030E040E251E460915B
S1130440BE017091BF018091C0019091C1010E94D1
S1130450AB060E94FB05DC01CB019093B9018093AC
S1130460B80166EF71E00E940401E6EFF1E08181DA
S11304708D878EE28E8780818F87DF91CF91FF9069
S1130480EF90DF90CF900895CF92DF92EF92FF929A
S11304908130910519F5C090BA01D090BB01E0906C
S11304A0BC01F090BD0120E030E040E850E4C70119
S11304B0B6010E9484058823ACF52DEC3CEC4CEC91
S11304C05DE3C701B6010E9418056093BA017093F9
S11304D0BB018093BC019093BD0124C0892B11F50D
S11304E0C090BA01D090BB01E090BC01F090BD0176
S11304F020E030E040E05FE3C701B6010E94A606B9
S1130500181684F42DEC3CEC4CEC5DE3C701B60109
S11305100E9417056093BA017093BB018093BC01DC
S11305209093BD01C090BA01D090BB01E090BC0192
S1130530F090BD01A70196016091BE017091BF01C9
S11305408091C0019091C1010E94A606882374F095
S1130550C092BE01D092BF01E092C001F092C101ED
S113056060E771E082E090E00E94A90120E030E0C1
S113057040E251E46091BA017091BB018091BC01E9
S11305809091BD010E94AB060E94FB05DC01CB01EA
S11305909093B9018093B80166EF71E00E94040161
S11305A0E4E0F1E0A6EFB1E011968C911197838716
S11305B08EE284878C918587FF90EF90DF90CF90B7
S11305C00895EF92FF920F931F93CF93DF937C01D3
S11305D060E081E00E94530060E080E80E945300E4
S11305E08701E701609661E0F80181918F010E9423
S11305F053000C171D07B9F760E080EC0E9453000C
S11306008701005E1F4F61E089910E945300C0176B
S1130610D107C9F7DF91CF911F910F91FF90EF9010
S113062008950F931F932091B6013091B7012130A3
S1130630310509F067C01092B7011092B6012091FC
S1130640EA013091EB0121303105A9F12430310563
S113065009F450C0232B09F055C0E091B401F09186
S1130660B501E60FF71F2081FC01E20FF11D20E226
S113067020832091B4013091B5012F5F3F4F243086
S1130680310529F03093B5012093B40104C01092D0
S1130690B5011092B4012091B4013091B501FB0170
S11306A0E20FF31F2081FC01E20FF11D2EE32083F2
S11306B00E94E10227C060E771E080E090E00E94C0
S11306C0A9010091BA011091BB012091BC013091A4
S11306D0BD014091BE015091BF016091C001709174
S11306E0C10180E791E00E94390180E791E00E9416
S11306F0E10208C080E090E00E94440284E091E0BE
S11307000E94E1028091EC019091ED01019709F0C2
S1130710A7C01092ED011092EC018091EA01909132
S1130720EB018130910509F474C08430910509F41A
S11307308FC0892B09F094C08091B4019091B501C8
S1130740892BF1F481E090E09093EB018093EA012E
S11307500091BA011091BB012091BC013091BD01FF
S11307604091BE015091BF016091C0017091C101DF
S113077080E791E00E94390180E791E00E94E10264
S11307808091B4019091B5010197F1F482E090E079
S11307909093EB018093EA010091BA011091BB019F
S11307A02091BC013091BD014091BE015091BF0127
S11307B06091C0017091C1018CE491E00E94390103
S11307C08CE491E00E94E1028091B4019091B50122
S11307D0029751F483E090E09093EB018093EA0157
S11307E088E291E00E94E1028091B4019091B50108
S11307F00397B1F584E090E09093EB018093EA01D4
S113080082E090E00E94440284E091E00E94E102D0
S113081027C060E771E081E090E00E94A9010091A7
S1130820BA011091BB012091BC013091BD014091EE
S1130830BE015091BF016091C0017091C10180E778
S113084091E00E94390180E791E00E94E10208C032
S113085081E090E00E94440284E091E00E94E10281
S11308608091EE019091EF010197C1F51092EF0193
S11308701092EE018091EA019091EB018230910592
S113088099F01CF4019739F029C083309105A9F03F
S11308900497E1F023C01092EB011092EA0184E97D
S11308A091E00E94E1021AC01092EB011092EA0159
S11308B084E991E00E94E10211C01092EB011092D0
S11308C0EA0184E991E00E94E10208C01092EB0180
S11308D01092EA0184E991E00E94E1021F910F91D4
S11308E008958FEF8AB914B885B981E080936800C0
S11308F088E380936B0078940E948C000E947601B8
S113090060E971E084E991E00E9411038091EA01B9
S11309109091EB0182309105D1F02CF4009749F0CD
S1130920019771F028C083309105C1F00497E9F074
S113093022C060E971E084E991E00E9411031BC0C8
S11309406CE671E080E791E00E94110314C068E452
S113095071E08CE491E00E9411030DC064E271E047
S113096088E291E00E94110306C060E071E084E037
S113097091E00E9411032FEF89E698E12150804015
S11309809040E1F700C000001092F5011092F401CC
S11309901092F3011092F2011092F1011092F00101
S11309A0B5CF1F920F920FB60F9211248F939F937E
S11309B01C9911C08091F2019091F301892B59F493
S11309C081E090E09093B7018093B6019093F30196
S11309D08093F20125C01D9911C08091F00190917E
S11309E0F101892B59F481E090E09093ED0180931B
S11309F0EC019093F1018093F00112C01B9910C097
S1130A008091F4019091F501892B51F481E090E0FB
S1130A109093EF018093EE019093F5018093F4019C
S1130A209F918F910F900FBE0F901F901895505863
S1130A30BB27AA270E942F050C946C060E945E0611
S1130A4038F00E94650620F039F49F3F19F426F42B
S1130A500C945B060EF4E095E7FB0C945506E92F25
S1130A600E947D0658F3BA17620773078407950737
S1130A7020F079F4A6F50C949F060EF4E0950B2E65
S1130A80BA2FA02D0B01B90190010C01CA01A001DC
S1130A901124FF27591B99F0593F50F4503E68F137
S1130AA01A16F040A22F232F342F4427585FF3CF78
S1130AB0469537952795A795F0405395C9F77EF449
S1130AC01F16BA0B620B730B840BBAF09150A1F092
S1130AD0FF0FBB1F661F771F881FC2F70EC0BA0F18
S1130AE0621F731F841F48F4879577956795B795A0
S1130AF0F7959E3F08F0B0CF9395880F08F099279B
S1130B00EE0F9795879508950E94310608F481E0C9
S1130B1008950E949D050C946C060E94650658F089
S1130B200E945E0640F029F45F3F29F00C945506BC
S1130B3051110C94A0060C945B060E947D0668F388
S1130B409923B1F3552391F3951B550BBB27AA2782
S1130B5062177307840738F09F5F5F4F220F331FBC
S1130B60441FAA1FA9F335D00E2E3AF0E0E832D084
S1130B7091505040E695001CCAF72BD0FE2F29D087
S1130B80660F771F881FBB1F261737074807AB0759
S1130B90B0E809F0BB0B802DBF01FF2793585F4FCE
S1130BA03AF09E3F510578F00C9455060C94A0063B
S1130BB05F3FE4F3983ED4F3869577956795B795B0
S1130BC0F7959F5FC9F7880F911D9695879597F9BB
S1130BD00895E1E0660F771F881FBB1F6217730734
S1130BE08407BA0720F0621B730B840BBA0BEE1F49
S1130BF088F7E09508950E9402066894B1110C9458
S1130C00A00608950E94850688F09F5798F0B92F92
S1130C109927B751B0F0E1F0660F771F881F991F2D
S1130C201AF0BA95C9F714C0B13091F00E949F062A
S1130C30B1E008950C949F06672F782F8827B85F3A
S1130C4039F0B93FCCF3869577956795B395D9F785
S1130C503EF490958095709561957F4F8F4F9F4F8F
S1130C600895990F0008550FAA0BE0E8FEEF161639
S1130C701706E807F907C0F012161306E407F5078C
S1130C8098F0621B730B840B950B39F40A2661F000
S1130C90232B242B252B21F408950A2609F4A140A3
S1130CA0A6958FEF811D811D089597F99F6780E8B0
S1130CB070E060E008959FEF80EC089500240A94AA
S1130CC01616170618060906089500240A94121623
S1130CD01306140605060895092E0394000C11F456
S1130CE0882352F0BB0F40F4BF2B11F460FF04C003
S1130CF06F5F7F4F8F4F9F4F089557FD9058440F5C
S1130D00551F59F05F3F71F04795880F97FB991F66
S1130D1061F09F3F79F08795089512161306140623
S1130D20551FF2CF4695F1DF08C0161617061806B0
S1130D30991FF1CF86957105610508940895E8948B
S1130D40BB2766277727CB0197F908950E943106C0
S1130D5008F48FEF08950E94BE060C946C060E945E
S1130D605E0638F00E94650620F0952311F00C947D
S1130D7055060C945B0611240C94A0060E947D0673
S1130D8070F3959FC1F3950F50E0551F629FF001DA
S1130D90729FBB27F00DB11D639FAA27F00DB11DF3
S1130DA0AA1F649F6627B00DA11D661F829F22277C
S1130DB0B00DA11D621F739FB00DA11D621F839F03
S1130DC0A00D611D221F749F3327A00D611D231FD9
S1130DD0849F600D211D822F762F6A2F11249F5727
S1130DE050409AF0F1F088234AF0EE0FFF1FBB1F2A
S1130DF0661F771F881F91505040A9F79E3F5105E9
S1130E0080F00C9455060C94A0065F3FE4F3983EE2
S1130E10D4F3869577956795B795F795E7959F5F92
S1130E20C1F7FE2B880F911D9695879597F9089524
S1130E30A29FB001B39FC001A39F700D811D112417
S1130E40911DB29F700D811D1124911D0895F89478
S1050E50FFCFCE
S1130E52000710172050575F6C696D69743A20209F
S1130E62202020202056657273696F6E20302E3345
S1130E723020202000071017204E6F6E652020209E
S1130E824E6F6E654E6F6E65204E6F6E652020202C
S1130E924E6F6E654E6F6E65000710172034343046
S1130EA2487A20202050573A312E35202020202005
S1130EB2202020202020202020202020000710177E
S1130EC245352D343430487A202050573A312E3566
S1130ED2202020202020202020202020202020200C
S1130EE200071017204D494449202020466978659F
S1130EF264202020204E6F6E652020205365747478
S1130F02696E6773030001000100000000400000E5
S1130F12C03F5061697661277320544300333238ED
S1130F225020496E746572727570746572005665EC
S10D0F327273696F6E20302E3100D7
S9030000FC
